{
	"data": {
		"bytecode": {
			"linkReferences": {},
			"object": "608060405260016003553480156200001657600080fd5b50604051620023693803806200236983398181016040528101906200003c9190620001b3565b82600760006101000a81548173ffffffffffffffffffffffffffffffffffffffff021916908373ffffffffffffffffffffffffffffffffffffffff16021790555081600860006101000a81548173ffffffffffffffffffffffffffffffffffffffff021916908373ffffffffffffffffffffffffffffffffffffffff16021790555080600960006101000a81548173ffffffffffffffffffffffffffffffffffffffff021916908373ffffffffffffffffffffffffffffffffffffffff16021790555033600a60006101000a81548173ffffffffffffffffffffffffffffffffffffffff021916908373ffffffffffffffffffffffffffffffffffffffff1602179055505050506200020f565b600080fd5b600073ffffffffffffffffffffffffffffffffffffffff82169050919050565b60006200017b826200014e565b9050919050565b6200018d816200016e565b81146200019957600080fd5b50565b600081519050620001ad8162000182565b92915050565b600080600060608486031215620001cf57620001ce62000149565b5b6000620001df868287016200019c565b9350506020620001f2868287016200019c565b925050604062000205868287016200019c565b9150509250925092565b61214a806200021f6000396000f3fe6080604052600436106100915760003560e01c80638da5cb5b116100595780638da5cb5b1461017f5780639c8f9f23146101aa5780639cd441da146101c6578063de5c02c2146101e2578063df791e501461021f57610091565b80630bcf732c1461009657806310ebb553146100d35780633f4c37d0146100fe5780635d0fd6b2146101295780635e4a9c7214610154575b600080fd5b3480156100a257600080fd5b506100bd60048036038101906100b89190611a92565b610248565b6040516100ca9190611ae1565b60405180910390f35b3480156100df57600080fd5b506100e861046f565b6040516100f59190611ae1565b60405180910390f35b34801561010a57600080fd5b50610113610475565b6040516101209190611ae1565b60405180910390f35b34801561013557600080fd5b5061013e61047b565b60405161014b9190611ae1565b60405180910390f35b34801561016057600080fd5b50610169610481565b6040516101769190611ae1565b60405180910390f35b34801561018b57600080fd5b50610194610487565b6040516101a19190611b0b565b60405180910390f35b6101c460048036038101906101bf9190611b26565b6104ad565b005b6101e060048036038101906101db9190611b53565b61088b565b005b3480156101ee57600080fd5b5061020960048036038101906102049190611b26565b610ee3565b6040516102169190611b0b565b60405180910390f35b34801561022b57600080fd5b5061024660048036038101906102419190611b93565b610f22565b005b6000600760009054906101000a900473ffffffffffffffffffffffffffffffffffffffff1673ffffffffffffffffffffffffffffffffffffffff168373ffffffffffffffffffffffffffffffffffffffff1614806102f35750600860009054906101000a900473ffffffffffffffffffffffffffffffffffffffff1673ffffffffffffffffffffffffffffffffffffffff168373ffffffffffffffffffffffffffffffffffffffff16145b610332576040517f08c379a000000000000000000000000000000000000000000000000000000000815260040161032990611c69565b60405180910390fd5b60006103e86103e5846103459190611cb8565b61034f9190611d29565b9050600760009054906101000a900473ffffffffffffffffffffffffffffffffffffffff1673ffffffffffffffffffffffffffffffffffffffff168473ffffffffffffffffffffffffffffffffffffffff16036103dc576000816000546103b69190611d5a565b9050806005546103c69190611d29565b6001546103d39190611d8e565b92505050610469565b600860009054906101000a900473ffffffffffffffffffffffffffffffffffffffff1673ffffffffffffffffffffffffffffffffffffffff168473ffffffffffffffffffffffffffffffffffffffff1603610467576000816001546104419190611d5a565b9050806005546104519190611d29565b60005461045e9190611d8e565b92505050610469565b505b92915050565b60005481565b60015481565b60025481565b60035481565b600a60009054906101000a900473ffffffffffffffffffffffffffffffffffffffff1681565b6000600760009054906101000a900473ffffffffffffffffffffffffffffffffffffffff1690506000600860009054906101000a900473ffffffffffffffffffffffffffffffffffffffff1690506000600960009054906101000a900473ffffffffffffffffffffffffffffffffffffffff169050838173ffffffffffffffffffffffffffffffffffffffff166370a08231336040518263ffffffff1660e01b815260040161055c9190611b0b565b602060405180830381865afa158015610579573d6000803e3d6000fd5b505050506040513d601f19601f8201168201806040525081019061059d9190611dd7565b10156105de576040517f08c379a00000000000000000000000000000000000000000000000000000000081526004016105d590611e50565b60405180910390fd5b8073ffffffffffffffffffffffffffffffffffffffff166323b872dd3330876040518463ffffffff1660e01b815260040161061b93929190611e70565b6020604051808303816000875af115801561063a573d6000803e3d6000fd5b505050506040513d601f19601f8201168201806040525081019061065e9190611edf565b508073ffffffffffffffffffffffffffffffffffffffff166342966c68856040518263ffffffff1660e01b81526004016106989190611ae1565b600060405180830381600087803b1580156106b257600080fd5b505af11580156106c6573d6000803e3d6000fd5b5050505060006002546064866106dc9190611cb8565b6106e69190611d29565b905084600260008282546106fa9190611d8e565b9250508190555060006064600054836107139190611cb8565b61071d9190611d29565b905060006064600154846107319190611cb8565b61073b9190611d29565b90508573ffffffffffffffffffffffffffffffffffffffff1663a9059cbb33846040518363ffffffff1660e01b8152600401610778929190611f0c565b6020604051808303816000875af1158015610797573d6000803e3d6000fd5b505050506040513d601f19601f820116820180604052508101906107bb9190611edf565b508473ffffffffffffffffffffffffffffffffffffffff1663a9059cbb33836040518363ffffffff1660e01b81526004016107f7929190611f0c565b6020604051808303816000875af1158015610816573d6000803e3d6000fd5b505050506040513d601f19601f8201168201806040525081019061083a9190611edf565b508160008082825461084c9190611d8e565b9250508190555080600160008282546108659190611d8e565b9250508190555060015460005461087c9190611cb8565b60058190555050505050505050565b6000600760009054906101000a900473ffffffffffffffffffffffffffffffffffffffff1690506000600860009054906101000a900473ffffffffffffffffffffffffffffffffffffffff169050838273ffffffffffffffffffffffffffffffffffffffff1663dd62ed3e33306040518363ffffffff1660e01b8152600401610915929190611f35565b602060405180830381865afa158015610932573d6000803e3d6000fd5b505050506040513d601f19601f820116820180604052508101906109569190611dd7565b1015610997576040517f08c379a000000000000000000000000000000000000000000000000000000000815260040161098e90611fd0565b60405180910390fd5b838273ffffffffffffffffffffffffffffffffffffffff166370a08231336040518263ffffffff1660e01b81526004016109d19190611b0b565b602060405180830381865afa1580156109ee573d6000803e3d6000fd5b505050506040513d601f19601f82011682018060405250810190610a129190611dd7565b1015610a53576040517f08c379a0000000000000000000000000000000000000000000000000000000008152600401610a4a90611e50565b60405180910390fd5b8173ffffffffffffffffffffffffffffffffffffffff166323b872dd3330876040518463ffffffff1660e01b8152600401610a9093929190611e70565b6020604051808303816000875af1158015610aaf573d6000803e3d6000fd5b505050506040513d601f19601f82011682018060405250810190610ad39190611edf565b50828173ffffffffffffffffffffffffffffffffffffffff1663dd62ed3e33306040518363ffffffff1660e01b8152600401610b10929190611f35565b602060405180830381865afa158015610b2d573d6000803e3d6000fd5b505050506040513d601f19601f82011682018060405250810190610b519190611dd7565b1015610b92576040517f08c379a0000000000000000000000000000000000000000000000000000000008152600401610b8990611fd0565b60405180910390fd5b828173ffffffffffffffffffffffffffffffffffffffff166370a08231336040518263ffffffff1660e01b8152600401610bcc9190611b0b565b602060405180830381865afa158015610be9573d6000803e3d6000fd5b505050506040513d601f19601f82011682018060405250810190610c0d9190611dd7565b1015610c4e576040517f08c379a0000000000000000000000000000000000000000000000000000000008152600401610c4590611e50565b60405180910390fd5b8073ffffffffffffffffffffffffffffffffffffffff166323b872dd3330866040518463ffffffff1660e01b8152600401610c8b93929190611e70565b6020604051808303816000875af1158015610caa573d6000803e3d6000fd5b505050506040513d601f19601f82011682018060405250810190610cce9190611edf565b5083600080828254610ce09190611d5a565b925050819055508260016000828254610cf99190611d5a565b925050819055506000600960009054906101000a900473ffffffffffffffffffffffffffffffffffffffff1690508073ffffffffffffffffffffffffffffffffffffffff1663a0712d68610d578688610d529190611cb8565b611847565b6040518263ffffffff1660e01b8152600401610d739190611ae1565b600060405180830381600087803b158015610d8d57600080fd5b505af1158015610da1573d6000803e3d6000fd5b50505050610db98486610db49190611cb8565b611847565b60026000828254610dca9190611d5a565b925050819055508073ffffffffffffffffffffffffffffffffffffffff1663a9059cbb33610e028789610dfd9190611cb8565b611847565b6040518363ffffffff1660e01b8152600401610e1f929190611f0c565b6020604051808303816000875af1158015610e3e573d6000803e3d6000fd5b505050506040513d601f19601f82011682018060405250810190610e629190611edf565b50600154600054610e739190611cb8565b6005819055506004339080600181540180825580915050600190039060005260206000200160009091909190916101000a81548173ffffffffffffffffffffffffffffffffffffffff021916908373ffffffffffffffffffffffffffffffffffffffff1602179055505050505050565b60048181548110610ef357600080fd5b906000526020600020016000915054906101000a900473ffffffffffffffffffffffffffffffffffffffff1681565b600760009054906101000a900473ffffffffffffffffffffffffffffffffffffffff1673ffffffffffffffffffffffffffffffffffffffff168373ffffffffffffffffffffffffffffffffffffffff161480610fcb5750600860009054906101000a900473ffffffffffffffffffffffffffffffffffffffff1673ffffffffffffffffffffffffffffffffffffffff168373ffffffffffffffffffffffffffffffffffffffff16145b61100a576040517f08c379a000000000000000000000000000000000000000000000000000000000815260040161100190612062565b60405180910390fd5b600760009054906101000a900473ffffffffffffffffffffffffffffffffffffffff1673ffffffffffffffffffffffffffffffffffffffff168273ffffffffffffffffffffffffffffffffffffffff1614806110b35750600860009054906101000a900473ffffffffffffffffffffffffffffffffffffffff1673ffffffffffffffffffffffffffffffffffffffff168273ffffffffffffffffffffffffffffffffffffffff16145b6110f2576040517f08c379a00000000000000000000000000000000000000000000000000000000081526004016110e990612062565b60405180910390fd5b6000839050600083905060008360035461110c9190611cb8565b9050600060648261111d9190611d29565b856111289190611d8e565b90508373ffffffffffffffffffffffffffffffffffffffff166323b872dd33306064866111559190611d29565b6040518463ffffffff1660e01b815260040161117393929190611e70565b6020604051808303816000875af1158015611192573d6000803e3d6000fd5b505050506040513d601f19601f820116820180604052508101906111b69190611edf565b506001546000546111c79190611cb8565b600581905550600760009054906101000a900473ffffffffffffffffffffffffffffffffffffffff1673ffffffffffffffffffffffffffffffffffffffff168773ffffffffffffffffffffffffffffffffffffffff16036115075760648261122f9190611d29565b8160005461123d9190611d5a565b6112479190611d5a565b60008190555060005460055461125d9190611d29565b60015461126a9190611d8e565b600681905550848473ffffffffffffffffffffffffffffffffffffffff166370a08231336040518263ffffffff1660e01b81526004016112aa9190611b0b565b602060405180830381865afa1580156112c7573d6000803e3d6000fd5b505050506040513d601f19601f820116820180604052508101906112eb9190611dd7565b101561132c576040517f08c379a000000000000000000000000000000000000000000000000000000000815260040161132390611e50565b60405180910390fd5b8373ffffffffffffffffffffffffffffffffffffffff166323b872dd3330846040518463ffffffff1660e01b815260040161136993929190611e70565b6020604051808303816000875af1158015611388573d6000803e3d6000fd5b505050506040513d601f19601f820116820180604052508101906113ac9190611edf565b506006548373ffffffffffffffffffffffffffffffffffffffff166370a08231306040518263ffffffff1660e01b81526004016113e99190611b0b565b602060405180830381865afa158015611406573d6000803e3d6000fd5b505050506040513d601f19601f8201168201806040525081019061142a9190611dd7565b101561146b576040517f08c379a0000000000000000000000000000000000000000000000000000000008152600401611462906120f4565b60405180910390fd5b8273ffffffffffffffffffffffffffffffffffffffff1663a9059cbb336006546040518363ffffffff1660e01b81526004016114a8929190611f0c565b6020604051808303816000875af11580156114c7573d6000803e3d6000fd5b505050506040513d601f19601f820116820180604052508101906114eb9190611edf565b506006546001546114fc9190611d8e565b60018190555061183e565b600860009054906101000a900473ffffffffffffffffffffffffffffffffffffffff1673ffffffffffffffffffffffffffffffffffffffff168773ffffffffffffffffffffffffffffffffffffffff160361183d576064826115699190611d29565b816001546115779190611d5a565b6115819190611d5a565b6001819055506001546005546115979190611d29565b6000546115a49190611d8e565b600681905550848473ffffffffffffffffffffffffffffffffffffffff166370a08231336040518263ffffffff1660e01b81526004016115e49190611b0b565b602060405180830381865afa158015611601573d6000803e3d6000fd5b505050506040513d601f19601f820116820180604052508101906116259190611dd7565b1015611666576040517f08c379a000000000000000000000000000000000000000000000000000000000815260040161165d90611e50565b60405180910390fd5b8373ffffffffffffffffffffffffffffffffffffffff166323b872dd3330846040518463ffffffff1660e01b81526004016116a393929190611e70565b6020604051808303816000875af11580156116c2573d6000803e3d6000fd5b505050506040513d601f19601f820116820180604052508101906116e69190611edf565b506006548373ffffffffffffffffffffffffffffffffffffffff166370a08231306040518263ffffffff1660e01b81526004016117239190611b0b565b602060405180830381865afa158015611740573d6000803e3d6000fd5b505050506040513d601f19601f820116820180604052508101906117649190611dd7565b10156117a5576040517f08c379a000000000000000000000000000000000000000000000000000000000815260040161179c906120f4565b60405180910390fd5b8273ffffffffffffffffffffffffffffffffffffffff1663a9059cbb336006546040518363ffffffff1660e01b81526004016117e2929190611f0c565b6020604051808303816000875af1158015611801573d6000803e3d6000fd5b505050506040513d601f19601f820116820180604052508101906118259190611edf565b506006546000546118369190611d8e565b6000819055505b5b50505050505050565b600080820361185957600090506119f4565b600082905060019150700100000000000000000000000000000000811061188957608081901c9050604082901b91505b6801000000000000000081106118a857604081901c9050602082901b91505b64010000000081106118c357602081901c9050601082901b91505b6201000081106118dc57601081901c9050600882901b91505b61010081106118f457600881901c9050600482901b91505b6010811061190b57600481901c9050600282901b91505b6008811061191b57600182901b91505b600182848161192d5761192c611cfa565b5b048301901c9150600182848161194657611945611cfa565b5b048301901c9150600182848161195f5761195e611cfa565b5b048301901c9150600182848161197857611977611cfa565b5b048301901c9150600182848161199157611990611cfa565b5b048301901c915060018284816119aa576119a9611cfa565b5b048301901c915060018284816119c3576119c2611cfa565b5b048301901c915060008284816119dc576119db611cfa565b5b049050808310156119ed57826119ef565b805b925050505b919050565b600080fd5b600073ffffffffffffffffffffffffffffffffffffffff82169050919050565b6000611a29826119fe565b9050919050565b611a3981611a1e565b8114611a4457600080fd5b50565b600081359050611a5681611a30565b92915050565b6000819050919050565b611a6f81611a5c565b8114611a7a57600080fd5b50565b600081359050611a8c81611a66565b92915050565b60008060408385031215611aa957611aa86119f9565b5b6000611ab785828601611a47565b9250506020611ac885828601611a7d565b9150509250929050565b611adb81611a5c565b82525050565b6000602082019050611af66000830184611ad2565b92915050565b611b0581611a1e565b82525050565b6000602082019050611b206000830184611afc565b92915050565b600060208284031215611b3c57611b3b6119f9565b5b6000611b4a84828501611a7d565b91505092915050565b60008060408385031215611b6a57611b696119f9565b5b6000611b7885828601611a7d565b9250506020611b8985828601611a7d565b9150509250929050565b600080600060608486031215611bac57611bab6119f9565b5b6000611bba86828701611a47565b9350506020611bcb86828701611a47565b9250506040611bdc86828701611a7d565b9150509250925092565b600082825260208201905092915050565b7f546f6b656e20746f2062652073776170706564206973206e656974686572206160008201527f626320636f696e206e6569746865722064656620636f696e0000000000000000602082015250565b6000611c53603883611be6565b9150611c5e82611bf7565b604082019050919050565b60006020820190508181036000830152611c8281611c46565b9050919050565b7f4e487b7100000000000000000000000000000000000000000000000000000000600052601160045260246000fd5b6000611cc382611a5c565b9150611cce83611a5c565b9250828202611cdc81611a5c565b91508282048414831517611cf357611cf2611c89565b5b5092915050565b7f4e487b7100000000000000000000000000000000000000000000000000000000600052601260045260246000fd5b6000611d3482611a5c565b9150611d3f83611a5c565b925082611d4f57611d4e611cfa565b5b828204905092915050565b6000611d6582611a5c565b9150611d7083611a5c565b9250828201905080821115611d8857611d87611c89565b5b92915050565b6000611d9982611a5c565b9150611da483611a5c565b9250828203905081811115611dbc57611dbb611c89565b5b92915050565b600081519050611dd181611a66565b92915050565b600060208284031215611ded57611dec6119f9565b5b6000611dfb84828501611dc2565b91505092915050565b7f596f75206861766520696e73756666696369656e742066756e64730000000000600082015250565b6000611e3a601b83611be6565b9150611e4582611e04565b602082019050919050565b60006020820190508181036000830152611e6981611e2d565b9050919050565b6000606082019050611e856000830186611afc565b611e926020830185611afc565b611e9f6040830184611ad2565b949350505050565b60008115159050919050565b611ebc81611ea7565b8114611ec757600080fd5b50565b600081519050611ed981611eb3565b92915050565b600060208284031215611ef557611ef46119f9565b5b6000611f0384828501611eca565b91505092915050565b6000604082019050611f216000830185611afc565b611f2e6020830184611ad2565b9392505050565b6000604082019050611f4a6000830185611afc565b611f576020830184611afc565b9392505050565b7f506c6561736520617070726f7665206265666f726520616464696e67206c697160008201527f7569646974790000000000000000000000000000000000000000000000000000602082015250565b6000611fba602683611be6565b9150611fc582611f5e565b604082019050919050565b60006020820190508181036000830152611fe981611fad565b9050919050565b7f746f6b656e2041206973206e6569746865722061626320636f696e206e6f722060008201527f64656620636f696e000000000000000000000000000000000000000000000000602082015250565b600061204c602883611be6565b915061205782611ff0565b604082019050919050565b6000602082019050818103600083015261207b8161203f565b9050919050565b7f414d4d20636f6e747261637420646f6573206e6f74206861766520737566666960008201527f6369656e74206c69717569646974790000000000000000000000000000000000602082015250565b60006120de602f83611be6565b91506120e982612082565b604082019050919050565b6000602082019050818103600083015261210d816120d1565b905091905056fea2646970667358221220177f3ae90157ebb6354b471dff67bab55f3fe211d6125c8ef0e959a7148de7c364736f6c63430008120033",
			"opcodes": "PUSH1 0x80 PUSH1 0x40 MSTORE PUSH1 0x1 PUSH1 0x3 SSTORE CALLVALUE DUP1 ISZERO PUSH3 0x16 JUMPI PUSH1 0x0 DUP1 REVERT JUMPDEST POP PUSH1 0x40 MLOAD PUSH3 0x2369 CODESIZE SUB DUP1 PUSH3 0x2369 DUP4 CODECOPY DUP2 DUP2 ADD PUSH1 0x40 MSTORE DUP2 ADD SWAP1 PUSH3 0x3C SWAP2 SWAP1 PUSH3 0x1B3 JUMP JUMPDEST DUP3 PUSH1 0x7 PUSH1 0x0 PUSH2 0x100 EXP DUP2 SLOAD DUP2 PUSH20 0xFFFFFFFFFFFFFFFFFFFFFFFFFFFFFFFFFFFFFFFF MUL NOT AND SWAP1 DUP4 PUSH20 0xFFFFFFFFFFFFFFFFFFFFFFFFFFFFFFFFFFFFFFFF AND MUL OR SWAP1 SSTORE POP DUP2 PUSH1 0x8 PUSH1 0x0 PUSH2 0x100 EXP DUP2 SLOAD DUP2 PUSH20 0xFFFFFFFFFFFFFFFFFFFFFFFFFFFFFFFFFFFFFFFF MUL NOT AND SWAP1 DUP4 PUSH20 0xFFFFFFFFFFFFFFFFFFFFFFFFFFFFFFFFFFFFFFFF AND MUL OR SWAP1 SSTORE POP DUP1 PUSH1 0x9 PUSH1 0x0 PUSH2 0x100 EXP DUP2 SLOAD DUP2 PUSH20 0xFFFFFFFFFFFFFFFFFFFFFFFFFFFFFFFFFFFFFFFF MUL NOT AND SWAP1 DUP4 PUSH20 0xFFFFFFFFFFFFFFFFFFFFFFFFFFFFFFFFFFFFFFFF AND MUL OR SWAP1 SSTORE POP CALLER PUSH1 0xA PUSH1 0x0 PUSH2 0x100 EXP DUP2 SLOAD DUP2 PUSH20 0xFFFFFFFFFFFFFFFFFFFFFFFFFFFFFFFFFFFFFFFF MUL NOT AND SWAP1 DUP4 PUSH20 0xFFFFFFFFFFFFFFFFFFFFFFFFFFFFFFFFFFFFFFFF AND MUL OR SWAP1 SSTORE POP POP POP POP PUSH3 0x20F JUMP JUMPDEST PUSH1 0x0 DUP1 REVERT JUMPDEST PUSH1 0x0 PUSH20 0xFFFFFFFFFFFFFFFFFFFFFFFFFFFFFFFFFFFFFFFF DUP3 AND SWAP1 POP SWAP2 SWAP1 POP JUMP JUMPDEST PUSH1 0x0 PUSH3 0x17B DUP3 PUSH3 0x14E JUMP JUMPDEST SWAP1 POP SWAP2 SWAP1 POP JUMP JUMPDEST PUSH3 0x18D DUP2 PUSH3 0x16E JUMP JUMPDEST DUP2 EQ PUSH3 0x199 JUMPI PUSH1 0x0 DUP1 REVERT JUMPDEST POP JUMP JUMPDEST PUSH1 0x0 DUP2 MLOAD SWAP1 POP PUSH3 0x1AD DUP2 PUSH3 0x182 JUMP JUMPDEST SWAP3 SWAP2 POP POP JUMP JUMPDEST PUSH1 0x0 DUP1 PUSH1 0x0 PUSH1 0x60 DUP5 DUP7 SUB SLT ISZERO PUSH3 0x1CF JUMPI PUSH3 0x1CE PUSH3 0x149 JUMP JUMPDEST JUMPDEST PUSH1 0x0 PUSH3 0x1DF DUP7 DUP3 DUP8 ADD PUSH3 0x19C JUMP JUMPDEST SWAP4 POP POP PUSH1 0x20 PUSH3 0x1F2 DUP7 DUP3 DUP8 ADD PUSH3 0x19C JUMP JUMPDEST SWAP3 POP POP PUSH1 0x40 PUSH3 0x205 DUP7 DUP3 DUP8 ADD PUSH3 0x19C JUMP JUMPDEST SWAP2 POP POP SWAP3 POP SWAP3 POP SWAP3 JUMP JUMPDEST PUSH2 0x214A DUP1 PUSH3 0x21F PUSH1 0x0 CODECOPY PUSH1 0x0 RETURN INVALID PUSH1 0x80 PUSH1 0x40 MSTORE PUSH1 0x4 CALLDATASIZE LT PUSH2 0x91 JUMPI PUSH1 0x0 CALLDATALOAD PUSH1 0xE0 SHR DUP1 PUSH4 0x8DA5CB5B GT PUSH2 0x59 JUMPI DUP1 PUSH4 0x8DA5CB5B EQ PUSH2 0x17F JUMPI DUP1 PUSH4 0x9C8F9F23 EQ PUSH2 0x1AA JUMPI DUP1 PUSH4 0x9CD441DA EQ PUSH2 0x1C6 JUMPI DUP1 PUSH4 0xDE5C02C2 EQ PUSH2 0x1E2 JUMPI DUP1 PUSH4 0xDF791E50 EQ PUSH2 0x21F JUMPI PUSH2 0x91 JUMP JUMPDEST DUP1 PUSH4 0xBCF732C EQ PUSH2 0x96 JUMPI DUP1 PUSH4 0x10EBB553 EQ PUSH2 0xD3 JUMPI DUP1 PUSH4 0x3F4C37D0 EQ PUSH2 0xFE JUMPI DUP1 PUSH4 0x5D0FD6B2 EQ PUSH2 0x129 JUMPI DUP1 PUSH4 0x5E4A9C72 EQ PUSH2 0x154 JUMPI JUMPDEST PUSH1 0x0 DUP1 REVERT JUMPDEST CALLVALUE DUP1 ISZERO PUSH2 0xA2 JUMPI PUSH1 0x0 DUP1 REVERT JUMPDEST POP PUSH2 0xBD PUSH1 0x4 DUP1 CALLDATASIZE SUB DUP2 ADD SWAP1 PUSH2 0xB8 SWAP2 SWAP1 PUSH2 0x1A92 JUMP JUMPDEST PUSH2 0x248 JUMP JUMPDEST PUSH1 0x40 MLOAD PUSH2 0xCA SWAP2 SWAP1 PUSH2 0x1AE1 JUMP JUMPDEST PUSH1 0x40 MLOAD DUP1 SWAP2 SUB SWAP1 RETURN JUMPDEST CALLVALUE DUP1 ISZERO PUSH2 0xDF JUMPI PUSH1 0x0 DUP1 REVERT JUMPDEST POP PUSH2 0xE8 PUSH2 0x46F JUMP JUMPDEST PUSH1 0x40 MLOAD PUSH2 0xF5 SWAP2 SWAP1 PUSH2 0x1AE1 JUMP JUMPDEST PUSH1 0x40 MLOAD DUP1 SWAP2 SUB SWAP1 RETURN JUMPDEST CALLVALUE DUP1 ISZERO PUSH2 0x10A JUMPI PUSH1 0x0 DUP1 REVERT JUMPDEST POP PUSH2 0x113 PUSH2 0x475 JUMP JUMPDEST PUSH1 0x40 MLOAD PUSH2 0x120 SWAP2 SWAP1 PUSH2 0x1AE1 JUMP JUMPDEST PUSH1 0x40 MLOAD DUP1 SWAP2 SUB SWAP1 RETURN JUMPDEST CALLVALUE DUP1 ISZERO PUSH2 0x135 JUMPI PUSH1 0x0 DUP1 REVERT JUMPDEST POP PUSH2 0x13E PUSH2 0x47B JUMP JUMPDEST PUSH1 0x40 MLOAD PUSH2 0x14B SWAP2 SWAP1 PUSH2 0x1AE1 JUMP JUMPDEST PUSH1 0x40 MLOAD DUP1 SWAP2 SUB SWAP1 RETURN JUMPDEST CALLVALUE DUP1 ISZERO PUSH2 0x160 JUMPI PUSH1 0x0 DUP1 REVERT JUMPDEST POP PUSH2 0x169 PUSH2 0x481 JUMP JUMPDEST PUSH1 0x40 MLOAD PUSH2 0x176 SWAP2 SWAP1 PUSH2 0x1AE1 JUMP JUMPDEST PUSH1 0x40 MLOAD DUP1 SWAP2 SUB SWAP1 RETURN JUMPDEST CALLVALUE DUP1 ISZERO PUSH2 0x18B JUMPI PUSH1 0x0 DUP1 REVERT JUMPDEST POP PUSH2 0x194 PUSH2 0x487 JUMP JUMPDEST PUSH1 0x40 MLOAD PUSH2 0x1A1 SWAP2 SWAP1 PUSH2 0x1B0B JUMP JUMPDEST PUSH1 0x40 MLOAD DUP1 SWAP2 SUB SWAP1 RETURN JUMPDEST PUSH2 0x1C4 PUSH1 0x4 DUP1 CALLDATASIZE SUB DUP2 ADD SWAP1 PUSH2 0x1BF SWAP2 SWAP1 PUSH2 0x1B26 JUMP JUMPDEST PUSH2 0x4AD JUMP JUMPDEST STOP JUMPDEST PUSH2 0x1E0 PUSH1 0x4 DUP1 CALLDATASIZE SUB DUP2 ADD SWAP1 PUSH2 0x1DB SWAP2 SWAP1 PUSH2 0x1B53 JUMP JUMPDEST PUSH2 0x88B JUMP JUMPDEST STOP JUMPDEST CALLVALUE DUP1 ISZERO PUSH2 0x1EE JUMPI PUSH1 0x0 DUP1 REVERT JUMPDEST POP PUSH2 0x209 PUSH1 0x4 DUP1 CALLDATASIZE SUB DUP2 ADD SWAP1 PUSH2 0x204 SWAP2 SWAP1 PUSH2 0x1B26 JUMP JUMPDEST PUSH2 0xEE3 JUMP JUMPDEST PUSH1 0x40 MLOAD PUSH2 0x216 SWAP2 SWAP1 PUSH2 0x1B0B JUMP JUMPDEST PUSH1 0x40 MLOAD DUP1 SWAP2 SUB SWAP1 RETURN JUMPDEST CALLVALUE DUP1 ISZERO PUSH2 0x22B JUMPI PUSH1 0x0 DUP1 REVERT JUMPDEST POP PUSH2 0x246 PUSH1 0x4 DUP1 CALLDATASIZE SUB DUP2 ADD SWAP1 PUSH2 0x241 SWAP2 SWAP1 PUSH2 0x1B93 JUMP JUMPDEST PUSH2 0xF22 JUMP JUMPDEST STOP JUMPDEST PUSH1 0x0 PUSH1 0x7 PUSH1 0x0 SWAP1 SLOAD SWAP1 PUSH2 0x100 EXP SWAP1 DIV PUSH20 0xFFFFFFFFFFFFFFFFFFFFFFFFFFFFFFFFFFFFFFFF AND PUSH20 0xFFFFFFFFFFFFFFFFFFFFFFFFFFFFFFFFFFFFFFFF AND DUP4 PUSH20 0xFFFFFFFFFFFFFFFFFFFFFFFFFFFFFFFFFFFFFFFF AND EQ DUP1 PUSH2 0x2F3 JUMPI POP PUSH1 0x8 PUSH1 0x0 SWAP1 SLOAD SWAP1 PUSH2 0x100 EXP SWAP1 DIV PUSH20 0xFFFFFFFFFFFFFFFFFFFFFFFFFFFFFFFFFFFFFFFF AND PUSH20 0xFFFFFFFFFFFFFFFFFFFFFFFFFFFFFFFFFFFFFFFF AND DUP4 PUSH20 0xFFFFFFFFFFFFFFFFFFFFFFFFFFFFFFFFFFFFFFFF AND EQ JUMPDEST PUSH2 0x332 JUMPI PUSH1 0x40 MLOAD PUSH32 0x8C379A000000000000000000000000000000000000000000000000000000000 DUP2 MSTORE PUSH1 0x4 ADD PUSH2 0x329 SWAP1 PUSH2 0x1C69 JUMP JUMPDEST PUSH1 0x40 MLOAD DUP1 SWAP2 SUB SWAP1 REVERT JUMPDEST PUSH1 0x0 PUSH2 0x3E8 PUSH2 0x3E5 DUP5 PUSH2 0x345 SWAP2 SWAP1 PUSH2 0x1CB8 JUMP JUMPDEST PUSH2 0x34F SWAP2 SWAP1 PUSH2 0x1D29 JUMP JUMPDEST SWAP1 POP PUSH1 0x7 PUSH1 0x0 SWAP1 SLOAD SWAP1 PUSH2 0x100 EXP SWAP1 DIV PUSH20 0xFFFFFFFFFFFFFFFFFFFFFFFFFFFFFFFFFFFFFFFF AND PUSH20 0xFFFFFFFFFFFFFFFFFFFFFFFFFFFFFFFFFFFFFFFF AND DUP5 PUSH20 0xFFFFFFFFFFFFFFFFFFFFFFFFFFFFFFFFFFFFFFFF AND SUB PUSH2 0x3DC JUMPI PUSH1 0x0 DUP2 PUSH1 0x0 SLOAD PUSH2 0x3B6 SWAP2 SWAP1 PUSH2 0x1D5A JUMP JUMPDEST SWAP1 POP DUP1 PUSH1 0x5 SLOAD PUSH2 0x3C6 SWAP2 SWAP1 PUSH2 0x1D29 JUMP JUMPDEST PUSH1 0x1 SLOAD PUSH2 0x3D3 SWAP2 SWAP1 PUSH2 0x1D8E JUMP JUMPDEST SWAP3 POP POP POP PUSH2 0x469 JUMP JUMPDEST PUSH1 0x8 PUSH1 0x0 SWAP1 SLOAD SWAP1 PUSH2 0x100 EXP SWAP1 DIV PUSH20 0xFFFFFFFFFFFFFFFFFFFFFFFFFFFFFFFFFFFFFFFF AND PUSH20 0xFFFFFFFFFFFFFFFFFFFFFFFFFFFFFFFFFFFFFFFF AND DUP5 PUSH20 0xFFFFFFFFFFFFFFFFFFFFFFFFFFFFFFFFFFFFFFFF AND SUB PUSH2 0x467 JUMPI PUSH1 0x0 DUP2 PUSH1 0x1 SLOAD PUSH2 0x441 SWAP2 SWAP1 PUSH2 0x1D5A JUMP JUMPDEST SWAP1 POP DUP1 PUSH1 0x5 SLOAD PUSH2 0x451 SWAP2 SWAP1 PUSH2 0x1D29 JUMP JUMPDEST PUSH1 0x0 SLOAD PUSH2 0x45E SWAP2 SWAP1 PUSH2 0x1D8E JUMP JUMPDEST SWAP3 POP POP POP PUSH2 0x469 JUMP JUMPDEST POP JUMPDEST SWAP3 SWAP2 POP POP JUMP JUMPDEST PUSH1 0x0 SLOAD DUP2 JUMP JUMPDEST PUSH1 0x1 SLOAD DUP2 JUMP JUMPDEST PUSH1 0x2 SLOAD DUP2 JUMP JUMPDEST PUSH1 0x3 SLOAD DUP2 JUMP JUMPDEST PUSH1 0xA PUSH1 0x0 SWAP1 SLOAD SWAP1 PUSH2 0x100 EXP SWAP1 DIV PUSH20 0xFFFFFFFFFFFFFFFFFFFFFFFFFFFFFFFFFFFFFFFF AND DUP2 JUMP JUMPDEST PUSH1 0x0 PUSH1 0x7 PUSH1 0x0 SWAP1 SLOAD SWAP1 PUSH2 0x100 EXP SWAP1 DIV PUSH20 0xFFFFFFFFFFFFFFFFFFFFFFFFFFFFFFFFFFFFFFFF AND SWAP1 POP PUSH1 0x0 PUSH1 0x8 PUSH1 0x0 SWAP1 SLOAD SWAP1 PUSH2 0x100 EXP SWAP1 DIV PUSH20 0xFFFFFFFFFFFFFFFFFFFFFFFFFFFFFFFFFFFFFFFF AND SWAP1 POP PUSH1 0x0 PUSH1 0x9 PUSH1 0x0 SWAP1 SLOAD SWAP1 PUSH2 0x100 EXP SWAP1 DIV PUSH20 0xFFFFFFFFFFFFFFFFFFFFFFFFFFFFFFFFFFFFFFFF AND SWAP1 POP DUP4 DUP2 PUSH20 0xFFFFFFFFFFFFFFFFFFFFFFFFFFFFFFFFFFFFFFFF AND PUSH4 0x70A08231 CALLER PUSH1 0x40 MLOAD DUP3 PUSH4 0xFFFFFFFF AND PUSH1 0xE0 SHL DUP2 MSTORE PUSH1 0x4 ADD PUSH2 0x55C SWAP2 SWAP1 PUSH2 0x1B0B JUMP JUMPDEST PUSH1 0x20 PUSH1 0x40 MLOAD DUP1 DUP4 SUB DUP2 DUP7 GAS STATICCALL ISZERO DUP1 ISZERO PUSH2 0x579 JUMPI RETURNDATASIZE PUSH1 0x0 DUP1 RETURNDATACOPY RETURNDATASIZE PUSH1 0x0 REVERT JUMPDEST POP POP POP POP PUSH1 0x40 MLOAD RETURNDATASIZE PUSH1 0x1F NOT PUSH1 0x1F DUP3 ADD AND DUP3 ADD DUP1 PUSH1 0x40 MSTORE POP DUP2 ADD SWAP1 PUSH2 0x59D SWAP2 SWAP1 PUSH2 0x1DD7 JUMP JUMPDEST LT ISZERO PUSH2 0x5DE JUMPI PUSH1 0x40 MLOAD PUSH32 0x8C379A000000000000000000000000000000000000000000000000000000000 DUP2 MSTORE PUSH1 0x4 ADD PUSH2 0x5D5 SWAP1 PUSH2 0x1E50 JUMP JUMPDEST PUSH1 0x40 MLOAD DUP1 SWAP2 SUB SWAP1 REVERT JUMPDEST DUP1 PUSH20 0xFFFFFFFFFFFFFFFFFFFFFFFFFFFFFFFFFFFFFFFF AND PUSH4 0x23B872DD CALLER ADDRESS DUP8 PUSH1 0x40 MLOAD DUP5 PUSH4 0xFFFFFFFF AND PUSH1 0xE0 SHL DUP2 MSTORE PUSH1 0x4 ADD PUSH2 0x61B SWAP4 SWAP3 SWAP2 SWAP1 PUSH2 0x1E70 JUMP JUMPDEST PUSH1 0x20 PUSH1 0x40 MLOAD DUP1 DUP4 SUB DUP2 PUSH1 0x0 DUP8 GAS CALL ISZERO DUP1 ISZERO PUSH2 0x63A JUMPI RETURNDATASIZE PUSH1 0x0 DUP1 RETURNDATACOPY RETURNDATASIZE PUSH1 0x0 REVERT JUMPDEST POP POP POP POP PUSH1 0x40 MLOAD RETURNDATASIZE PUSH1 0x1F NOT PUSH1 0x1F DUP3 ADD AND DUP3 ADD DUP1 PUSH1 0x40 MSTORE POP DUP2 ADD SWAP1 PUSH2 0x65E SWAP2 SWAP1 PUSH2 0x1EDF JUMP JUMPDEST POP DUP1 PUSH20 0xFFFFFFFFFFFFFFFFFFFFFFFFFFFFFFFFFFFFFFFF AND PUSH4 0x42966C68 DUP6 PUSH1 0x40 MLOAD DUP3 PUSH4 0xFFFFFFFF AND PUSH1 0xE0 SHL DUP2 MSTORE PUSH1 0x4 ADD PUSH2 0x698 SWAP2 SWAP1 PUSH2 0x1AE1 JUMP JUMPDEST PUSH1 0x0 PUSH1 0x40 MLOAD DUP1 DUP4 SUB DUP2 PUSH1 0x0 DUP8 DUP1 EXTCODESIZE ISZERO DUP1 ISZERO PUSH2 0x6B2 JUMPI PUSH1 0x0 DUP1 REVERT JUMPDEST POP GAS CALL ISZERO DUP1 ISZERO PUSH2 0x6C6 JUMPI RETURNDATASIZE PUSH1 0x0 DUP1 RETURNDATACOPY RETURNDATASIZE PUSH1 0x0 REVERT JUMPDEST POP POP POP POP PUSH1 0x0 PUSH1 0x2 SLOAD PUSH1 0x64 DUP7 PUSH2 0x6DC SWAP2 SWAP1 PUSH2 0x1CB8 JUMP JUMPDEST PUSH2 0x6E6 SWAP2 SWAP1 PUSH2 0x1D29 JUMP JUMPDEST SWAP1 POP DUP5 PUSH1 0x2 PUSH1 0x0 DUP3 DUP3 SLOAD PUSH2 0x6FA SWAP2 SWAP1 PUSH2 0x1D8E JUMP JUMPDEST SWAP3 POP POP DUP2 SWAP1 SSTORE POP PUSH1 0x0 PUSH1 0x64 PUSH1 0x0 SLOAD DUP4 PUSH2 0x713 SWAP2 SWAP1 PUSH2 0x1CB8 JUMP JUMPDEST PUSH2 0x71D SWAP2 SWAP1 PUSH2 0x1D29 JUMP JUMPDEST SWAP1 POP PUSH1 0x0 PUSH1 0x64 PUSH1 0x1 SLOAD DUP5 PUSH2 0x731 SWAP2 SWAP1 PUSH2 0x1CB8 JUMP JUMPDEST PUSH2 0x73B SWAP2 SWAP1 PUSH2 0x1D29 JUMP JUMPDEST SWAP1 POP DUP6 PUSH20 0xFFFFFFFFFFFFFFFFFFFFFFFFFFFFFFFFFFFFFFFF AND PUSH4 0xA9059CBB CALLER DUP5 PUSH1 0x40 MLOAD DUP4 PUSH4 0xFFFFFFFF AND PUSH1 0xE0 SHL DUP2 MSTORE PUSH1 0x4 ADD PUSH2 0x778 SWAP3 SWAP2 SWAP1 PUSH2 0x1F0C JUMP JUMPDEST PUSH1 0x20 PUSH1 0x40 MLOAD DUP1 DUP4 SUB DUP2 PUSH1 0x0 DUP8 GAS CALL ISZERO DUP1 ISZERO PUSH2 0x797 JUMPI RETURNDATASIZE PUSH1 0x0 DUP1 RETURNDATACOPY RETURNDATASIZE PUSH1 0x0 REVERT JUMPDEST POP POP POP POP PUSH1 0x40 MLOAD RETURNDATASIZE PUSH1 0x1F NOT PUSH1 0x1F DUP3 ADD AND DUP3 ADD DUP1 PUSH1 0x40 MSTORE POP DUP2 ADD SWAP1 PUSH2 0x7BB SWAP2 SWAP1 PUSH2 0x1EDF JUMP JUMPDEST POP DUP5 PUSH20 0xFFFFFFFFFFFFFFFFFFFFFFFFFFFFFFFFFFFFFFFF AND PUSH4 0xA9059CBB CALLER DUP4 PUSH1 0x40 MLOAD DUP4 PUSH4 0xFFFFFFFF AND PUSH1 0xE0 SHL DUP2 MSTORE PUSH1 0x4 ADD PUSH2 0x7F7 SWAP3 SWAP2 SWAP1 PUSH2 0x1F0C JUMP JUMPDEST PUSH1 0x20 PUSH1 0x40 MLOAD DUP1 DUP4 SUB DUP2 PUSH1 0x0 DUP8 GAS CALL ISZERO DUP1 ISZERO PUSH2 0x816 JUMPI RETURNDATASIZE PUSH1 0x0 DUP1 RETURNDATACOPY RETURNDATASIZE PUSH1 0x0 REVERT JUMPDEST POP POP POP POP PUSH1 0x40 MLOAD RETURNDATASIZE PUSH1 0x1F NOT PUSH1 0x1F DUP3 ADD AND DUP3 ADD DUP1 PUSH1 0x40 MSTORE POP DUP2 ADD SWAP1 PUSH2 0x83A SWAP2 SWAP1 PUSH2 0x1EDF JUMP JUMPDEST POP DUP2 PUSH1 0x0 DUP1 DUP3 DUP3 SLOAD PUSH2 0x84C SWAP2 SWAP1 PUSH2 0x1D8E JUMP JUMPDEST SWAP3 POP POP DUP2 SWAP1 SSTORE POP DUP1 PUSH1 0x1 PUSH1 0x0 DUP3 DUP3 SLOAD PUSH2 0x865 SWAP2 SWAP1 PUSH2 0x1D8E JUMP JUMPDEST SWAP3 POP POP DUP2 SWAP1 SSTORE POP PUSH1 0x1 SLOAD PUSH1 0x0 SLOAD PUSH2 0x87C SWAP2 SWAP1 PUSH2 0x1CB8 JUMP JUMPDEST PUSH1 0x5 DUP2 SWAP1 SSTORE POP POP POP POP POP POP POP POP JUMP JUMPDEST PUSH1 0x0 PUSH1 0x7 PUSH1 0x0 SWAP1 SLOAD SWAP1 PUSH2 0x100 EXP SWAP1 DIV PUSH20 0xFFFFFFFFFFFFFFFFFFFFFFFFFFFFFFFFFFFFFFFF AND SWAP1 POP PUSH1 0x0 PUSH1 0x8 PUSH1 0x0 SWAP1 SLOAD SWAP1 PUSH2 0x100 EXP SWAP1 DIV PUSH20 0xFFFFFFFFFFFFFFFFFFFFFFFFFFFFFFFFFFFFFFFF AND SWAP1 POP DUP4 DUP3 PUSH20 0xFFFFFFFFFFFFFFFFFFFFFFFFFFFFFFFFFFFFFFFF AND PUSH4 0xDD62ED3E CALLER ADDRESS PUSH1 0x40 MLOAD DUP4 PUSH4 0xFFFFFFFF AND PUSH1 0xE0 SHL DUP2 MSTORE PUSH1 0x4 ADD PUSH2 0x915 SWAP3 SWAP2 SWAP1 PUSH2 0x1F35 JUMP JUMPDEST PUSH1 0x20 PUSH1 0x40 MLOAD DUP1 DUP4 SUB DUP2 DUP7 GAS STATICCALL ISZERO DUP1 ISZERO PUSH2 0x932 JUMPI RETURNDATASIZE PUSH1 0x0 DUP1 RETURNDATACOPY RETURNDATASIZE PUSH1 0x0 REVERT JUMPDEST POP POP POP POP PUSH1 0x40 MLOAD RETURNDATASIZE PUSH1 0x1F NOT PUSH1 0x1F DUP3 ADD AND DUP3 ADD DUP1 PUSH1 0x40 MSTORE POP DUP2 ADD SWAP1 PUSH2 0x956 SWAP2 SWAP1 PUSH2 0x1DD7 JUMP JUMPDEST LT ISZERO PUSH2 0x997 JUMPI PUSH1 0x40 MLOAD PUSH32 0x8C379A000000000000000000000000000000000000000000000000000000000 DUP2 MSTORE PUSH1 0x4 ADD PUSH2 0x98E SWAP1 PUSH2 0x1FD0 JUMP JUMPDEST PUSH1 0x40 MLOAD DUP1 SWAP2 SUB SWAP1 REVERT JUMPDEST DUP4 DUP3 PUSH20 0xFFFFFFFFFFFFFFFFFFFFFFFFFFFFFFFFFFFFFFFF AND PUSH4 0x70A08231 CALLER PUSH1 0x40 MLOAD DUP3 PUSH4 0xFFFFFFFF AND PUSH1 0xE0 SHL DUP2 MSTORE PUSH1 0x4 ADD PUSH2 0x9D1 SWAP2 SWAP1 PUSH2 0x1B0B JUMP JUMPDEST PUSH1 0x20 PUSH1 0x40 MLOAD DUP1 DUP4 SUB DUP2 DUP7 GAS STATICCALL ISZERO DUP1 ISZERO PUSH2 0x9EE JUMPI RETURNDATASIZE PUSH1 0x0 DUP1 RETURNDATACOPY RETURNDATASIZE PUSH1 0x0 REVERT JUMPDEST POP POP POP POP PUSH1 0x40 MLOAD RETURNDATASIZE PUSH1 0x1F NOT PUSH1 0x1F DUP3 ADD AND DUP3 ADD DUP1 PUSH1 0x40 MSTORE POP DUP2 ADD SWAP1 PUSH2 0xA12 SWAP2 SWAP1 PUSH2 0x1DD7 JUMP JUMPDEST LT ISZERO PUSH2 0xA53 JUMPI PUSH1 0x40 MLOAD PUSH32 0x8C379A000000000000000000000000000000000000000000000000000000000 DUP2 MSTORE PUSH1 0x4 ADD PUSH2 0xA4A SWAP1 PUSH2 0x1E50 JUMP JUMPDEST PUSH1 0x40 MLOAD DUP1 SWAP2 SUB SWAP1 REVERT JUMPDEST DUP2 PUSH20 0xFFFFFFFFFFFFFFFFFFFFFFFFFFFFFFFFFFFFFFFF AND PUSH4 0x23B872DD CALLER ADDRESS DUP8 PUSH1 0x40 MLOAD DUP5 PUSH4 0xFFFFFFFF AND PUSH1 0xE0 SHL DUP2 MSTORE PUSH1 0x4 ADD PUSH2 0xA90 SWAP4 SWAP3 SWAP2 SWAP1 PUSH2 0x1E70 JUMP JUMPDEST PUSH1 0x20 PUSH1 0x40 MLOAD DUP1 DUP4 SUB DUP2 PUSH1 0x0 DUP8 GAS CALL ISZERO DUP1 ISZERO PUSH2 0xAAF JUMPI RETURNDATASIZE PUSH1 0x0 DUP1 RETURNDATACOPY RETURNDATASIZE PUSH1 0x0 REVERT JUMPDEST POP POP POP POP PUSH1 0x40 MLOAD RETURNDATASIZE PUSH1 0x1F NOT PUSH1 0x1F DUP3 ADD AND DUP3 ADD DUP1 PUSH1 0x40 MSTORE POP DUP2 ADD SWAP1 PUSH2 0xAD3 SWAP2 SWAP1 PUSH2 0x1EDF JUMP JUMPDEST POP DUP3 DUP2 PUSH20 0xFFFFFFFFFFFFFFFFFFFFFFFFFFFFFFFFFFFFFFFF AND PUSH4 0xDD62ED3E CALLER ADDRESS PUSH1 0x40 MLOAD DUP4 PUSH4 0xFFFFFFFF AND PUSH1 0xE0 SHL DUP2 MSTORE PUSH1 0x4 ADD PUSH2 0xB10 SWAP3 SWAP2 SWAP1 PUSH2 0x1F35 JUMP JUMPDEST PUSH1 0x20 PUSH1 0x40 MLOAD DUP1 DUP4 SUB DUP2 DUP7 GAS STATICCALL ISZERO DUP1 ISZERO PUSH2 0xB2D JUMPI RETURNDATASIZE PUSH1 0x0 DUP1 RETURNDATACOPY RETURNDATASIZE PUSH1 0x0 REVERT JUMPDEST POP POP POP POP PUSH1 0x40 MLOAD RETURNDATASIZE PUSH1 0x1F NOT PUSH1 0x1F DUP3 ADD AND DUP3 ADD DUP1 PUSH1 0x40 MSTORE POP DUP2 ADD SWAP1 PUSH2 0xB51 SWAP2 SWAP1 PUSH2 0x1DD7 JUMP JUMPDEST LT ISZERO PUSH2 0xB92 JUMPI PUSH1 0x40 MLOAD PUSH32 0x8C379A000000000000000000000000000000000000000000000000000000000 DUP2 MSTORE PUSH1 0x4 ADD PUSH2 0xB89 SWAP1 PUSH2 0x1FD0 JUMP JUMPDEST PUSH1 0x40 MLOAD DUP1 SWAP2 SUB SWAP1 REVERT JUMPDEST DUP3 DUP2 PUSH20 0xFFFFFFFFFFFFFFFFFFFFFFFFFFFFFFFFFFFFFFFF AND PUSH4 0x70A08231 CALLER PUSH1 0x40 MLOAD DUP3 PUSH4 0xFFFFFFFF AND PUSH1 0xE0 SHL DUP2 MSTORE PUSH1 0x4 ADD PUSH2 0xBCC SWAP2 SWAP1 PUSH2 0x1B0B JUMP JUMPDEST PUSH1 0x20 PUSH1 0x40 MLOAD DUP1 DUP4 SUB DUP2 DUP7 GAS STATICCALL ISZERO DUP1 ISZERO PUSH2 0xBE9 JUMPI RETURNDATASIZE PUSH1 0x0 DUP1 RETURNDATACOPY RETURNDATASIZE PUSH1 0x0 REVERT JUMPDEST POP POP POP POP PUSH1 0x40 MLOAD RETURNDATASIZE PUSH1 0x1F NOT PUSH1 0x1F DUP3 ADD AND DUP3 ADD DUP1 PUSH1 0x40 MSTORE POP DUP2 ADD SWAP1 PUSH2 0xC0D SWAP2 SWAP1 PUSH2 0x1DD7 JUMP JUMPDEST LT ISZERO PUSH2 0xC4E JUMPI PUSH1 0x40 MLOAD PUSH32 0x8C379A000000000000000000000000000000000000000000000000000000000 DUP2 MSTORE PUSH1 0x4 ADD PUSH2 0xC45 SWAP1 PUSH2 0x1E50 JUMP JUMPDEST PUSH1 0x40 MLOAD DUP1 SWAP2 SUB SWAP1 REVERT JUMPDEST DUP1 PUSH20 0xFFFFFFFFFFFFFFFFFFFFFFFFFFFFFFFFFFFFFFFF AND PUSH4 0x23B872DD CALLER ADDRESS DUP7 PUSH1 0x40 MLOAD DUP5 PUSH4 0xFFFFFFFF AND PUSH1 0xE0 SHL DUP2 MSTORE PUSH1 0x4 ADD PUSH2 0xC8B SWAP4 SWAP3 SWAP2 SWAP1 PUSH2 0x1E70 JUMP JUMPDEST PUSH1 0x20 PUSH1 0x40 MLOAD DUP1 DUP4 SUB DUP2 PUSH1 0x0 DUP8 GAS CALL ISZERO DUP1 ISZERO PUSH2 0xCAA JUMPI RETURNDATASIZE PUSH1 0x0 DUP1 RETURNDATACOPY RETURNDATASIZE PUSH1 0x0 REVERT JUMPDEST POP POP POP POP PUSH1 0x40 MLOAD RETURNDATASIZE PUSH1 0x1F NOT PUSH1 0x1F DUP3 ADD AND DUP3 ADD DUP1 PUSH1 0x40 MSTORE POP DUP2 ADD SWAP1 PUSH2 0xCCE SWAP2 SWAP1 PUSH2 0x1EDF JUMP JUMPDEST POP DUP4 PUSH1 0x0 DUP1 DUP3 DUP3 SLOAD PUSH2 0xCE0 SWAP2 SWAP1 PUSH2 0x1D5A JUMP JUMPDEST SWAP3 POP POP DUP2 SWAP1 SSTORE POP DUP3 PUSH1 0x1 PUSH1 0x0 DUP3 DUP3 SLOAD PUSH2 0xCF9 SWAP2 SWAP1 PUSH2 0x1D5A JUMP JUMPDEST SWAP3 POP POP DUP2 SWAP1 SSTORE POP PUSH1 0x0 PUSH1 0x9 PUSH1 0x0 SWAP1 SLOAD SWAP1 PUSH2 0x100 EXP SWAP1 DIV PUSH20 0xFFFFFFFFFFFFFFFFFFFFFFFFFFFFFFFFFFFFFFFF AND SWAP1 POP DUP1 PUSH20 0xFFFFFFFFFFFFFFFFFFFFFFFFFFFFFFFFFFFFFFFF AND PUSH4 0xA0712D68 PUSH2 0xD57 DUP7 DUP9 PUSH2 0xD52 SWAP2 SWAP1 PUSH2 0x1CB8 JUMP JUMPDEST PUSH2 0x1847 JUMP JUMPDEST PUSH1 0x40 MLOAD DUP3 PUSH4 0xFFFFFFFF AND PUSH1 0xE0 SHL DUP2 MSTORE PUSH1 0x4 ADD PUSH2 0xD73 SWAP2 SWAP1 PUSH2 0x1AE1 JUMP JUMPDEST PUSH1 0x0 PUSH1 0x40 MLOAD DUP1 DUP4 SUB DUP2 PUSH1 0x0 DUP8 DUP1 EXTCODESIZE ISZERO DUP1 ISZERO PUSH2 0xD8D JUMPI PUSH1 0x0 DUP1 REVERT JUMPDEST POP GAS CALL ISZERO DUP1 ISZERO PUSH2 0xDA1 JUMPI RETURNDATASIZE PUSH1 0x0 DUP1 RETURNDATACOPY RETURNDATASIZE PUSH1 0x0 REVERT JUMPDEST POP POP POP POP PUSH2 0xDB9 DUP5 DUP7 PUSH2 0xDB4 SWAP2 SWAP1 PUSH2 0x1CB8 JUMP JUMPDEST PUSH2 0x1847 JUMP JUMPDEST PUSH1 0x2 PUSH1 0x0 DUP3 DUP3 SLOAD PUSH2 0xDCA SWAP2 SWAP1 PUSH2 0x1D5A JUMP JUMPDEST SWAP3 POP POP DUP2 SWAP1 SSTORE POP DUP1 PUSH20 0xFFFFFFFFFFFFFFFFFFFFFFFFFFFFFFFFFFFFFFFF AND PUSH4 0xA9059CBB CALLER PUSH2 0xE02 DUP8 DUP10 PUSH2 0xDFD SWAP2 SWAP1 PUSH2 0x1CB8 JUMP JUMPDEST PUSH2 0x1847 JUMP JUMPDEST PUSH1 0x40 MLOAD DUP4 PUSH4 0xFFFFFFFF AND PUSH1 0xE0 SHL DUP2 MSTORE PUSH1 0x4 ADD PUSH2 0xE1F SWAP3 SWAP2 SWAP1 PUSH2 0x1F0C JUMP JUMPDEST PUSH1 0x20 PUSH1 0x40 MLOAD DUP1 DUP4 SUB DUP2 PUSH1 0x0 DUP8 GAS CALL ISZERO DUP1 ISZERO PUSH2 0xE3E JUMPI RETURNDATASIZE PUSH1 0x0 DUP1 RETURNDATACOPY RETURNDATASIZE PUSH1 0x0 REVERT JUMPDEST POP POP POP POP PUSH1 0x40 MLOAD RETURNDATASIZE PUSH1 0x1F NOT PUSH1 0x1F DUP3 ADD AND DUP3 ADD DUP1 PUSH1 0x40 MSTORE POP DUP2 ADD SWAP1 PUSH2 0xE62 SWAP2 SWAP1 PUSH2 0x1EDF JUMP JUMPDEST POP PUSH1 0x1 SLOAD PUSH1 0x0 SLOAD PUSH2 0xE73 SWAP2 SWAP1 PUSH2 0x1CB8 JUMP JUMPDEST PUSH1 0x5 DUP2 SWAP1 SSTORE POP PUSH1 0x4 CALLER SWAP1 DUP1 PUSH1 0x1 DUP2 SLOAD ADD DUP1 DUP3 SSTORE DUP1 SWAP2 POP POP PUSH1 0x1 SWAP1 SUB SWAP1 PUSH1 0x0 MSTORE PUSH1 0x20 PUSH1 0x0 KECCAK256 ADD PUSH1 0x0 SWAP1 SWAP2 SWAP1 SWAP2 SWAP1 SWAP2 PUSH2 0x100 EXP DUP2 SLOAD DUP2 PUSH20 0xFFFFFFFFFFFFFFFFFFFFFFFFFFFFFFFFFFFFFFFF MUL NOT AND SWAP1 DUP4 PUSH20 0xFFFFFFFFFFFFFFFFFFFFFFFFFFFFFFFFFFFFFFFF AND MUL OR SWAP1 SSTORE POP POP POP POP POP POP JUMP JUMPDEST PUSH1 0x4 DUP2 DUP2 SLOAD DUP2 LT PUSH2 0xEF3 JUMPI PUSH1 0x0 DUP1 REVERT JUMPDEST SWAP1 PUSH1 0x0 MSTORE PUSH1 0x20 PUSH1 0x0 KECCAK256 ADD PUSH1 0x0 SWAP2 POP SLOAD SWAP1 PUSH2 0x100 EXP SWAP1 DIV PUSH20 0xFFFFFFFFFFFFFFFFFFFFFFFFFFFFFFFFFFFFFFFF AND DUP2 JUMP JUMPDEST PUSH1 0x7 PUSH1 0x0 SWAP1 SLOAD SWAP1 PUSH2 0x100 EXP SWAP1 DIV PUSH20 0xFFFFFFFFFFFFFFFFFFFFFFFFFFFFFFFFFFFFFFFF AND PUSH20 0xFFFFFFFFFFFFFFFFFFFFFFFFFFFFFFFFFFFFFFFF AND DUP4 PUSH20 0xFFFFFFFFFFFFFFFFFFFFFFFFFFFFFFFFFFFFFFFF AND EQ DUP1 PUSH2 0xFCB JUMPI POP PUSH1 0x8 PUSH1 0x0 SWAP1 SLOAD SWAP1 PUSH2 0x100 EXP SWAP1 DIV PUSH20 0xFFFFFFFFFFFFFFFFFFFFFFFFFFFFFFFFFFFFFFFF AND PUSH20 0xFFFFFFFFFFFFFFFFFFFFFFFFFFFFFFFFFFFFFFFF AND DUP4 PUSH20 0xFFFFFFFFFFFFFFFFFFFFFFFFFFFFFFFFFFFFFFFF AND EQ JUMPDEST PUSH2 0x100A JUMPI PUSH1 0x40 MLOAD PUSH32 0x8C379A000000000000000000000000000000000000000000000000000000000 DUP2 MSTORE PUSH1 0x4 ADD PUSH2 0x1001 SWAP1 PUSH2 0x2062 JUMP JUMPDEST PUSH1 0x40 MLOAD DUP1 SWAP2 SUB SWAP1 REVERT JUMPDEST PUSH1 0x7 PUSH1 0x0 SWAP1 SLOAD SWAP1 PUSH2 0x100 EXP SWAP1 DIV PUSH20 0xFFFFFFFFFFFFFFFFFFFFFFFFFFFFFFFFFFFFFFFF AND PUSH20 0xFFFFFFFFFFFFFFFFFFFFFFFFFFFFFFFFFFFFFFFF AND DUP3 PUSH20 0xFFFFFFFFFFFFFFFFFFFFFFFFFFFFFFFFFFFFFFFF AND EQ DUP1 PUSH2 0x10B3 JUMPI POP PUSH1 0x8 PUSH1 0x0 SWAP1 SLOAD SWAP1 PUSH2 0x100 EXP SWAP1 DIV PUSH20 0xFFFFFFFFFFFFFFFFFFFFFFFFFFFFFFFFFFFFFFFF AND PUSH20 0xFFFFFFFFFFFFFFFFFFFFFFFFFFFFFFFFFFFFFFFF AND DUP3 PUSH20 0xFFFFFFFFFFFFFFFFFFFFFFFFFFFFFFFFFFFFFFFF AND EQ JUMPDEST PUSH2 0x10F2 JUMPI PUSH1 0x40 MLOAD PUSH32 0x8C379A000000000000000000000000000000000000000000000000000000000 DUP2 MSTORE PUSH1 0x4 ADD PUSH2 0x10E9 SWAP1 PUSH2 0x2062 JUMP JUMPDEST PUSH1 0x40 MLOAD DUP1 SWAP2 SUB SWAP1 REVERT JUMPDEST PUSH1 0x0 DUP4 SWAP1 POP PUSH1 0x0 DUP4 SWAP1 POP PUSH1 0x0 DUP4 PUSH1 0x3 SLOAD PUSH2 0x110C SWAP2 SWAP1 PUSH2 0x1CB8 JUMP JUMPDEST SWAP1 POP PUSH1 0x0 PUSH1 0x64 DUP3 PUSH2 0x111D SWAP2 SWAP1 PUSH2 0x1D29 JUMP JUMPDEST DUP6 PUSH2 0x1128 SWAP2 SWAP1 PUSH2 0x1D8E JUMP JUMPDEST SWAP1 POP DUP4 PUSH20 0xFFFFFFFFFFFFFFFFFFFFFFFFFFFFFFFFFFFFFFFF AND PUSH4 0x23B872DD CALLER ADDRESS PUSH1 0x64 DUP7 PUSH2 0x1155 SWAP2 SWAP1 PUSH2 0x1D29 JUMP JUMPDEST PUSH1 0x40 MLOAD DUP5 PUSH4 0xFFFFFFFF AND PUSH1 0xE0 SHL DUP2 MSTORE PUSH1 0x4 ADD PUSH2 0x1173 SWAP4 SWAP3 SWAP2 SWAP1 PUSH2 0x1E70 JUMP JUMPDEST PUSH1 0x20 PUSH1 0x40 MLOAD DUP1 DUP4 SUB DUP2 PUSH1 0x0 DUP8 GAS CALL ISZERO DUP1 ISZERO PUSH2 0x1192 JUMPI RETURNDATASIZE PUSH1 0x0 DUP1 RETURNDATACOPY RETURNDATASIZE PUSH1 0x0 REVERT JUMPDEST POP POP POP POP PUSH1 0x40 MLOAD RETURNDATASIZE PUSH1 0x1F NOT PUSH1 0x1F DUP3 ADD AND DUP3 ADD DUP1 PUSH1 0x40 MSTORE POP DUP2 ADD SWAP1 PUSH2 0x11B6 SWAP2 SWAP1 PUSH2 0x1EDF JUMP JUMPDEST POP PUSH1 0x1 SLOAD PUSH1 0x0 SLOAD PUSH2 0x11C7 SWAP2 SWAP1 PUSH2 0x1CB8 JUMP JUMPDEST PUSH1 0x5 DUP2 SWAP1 SSTORE POP PUSH1 0x7 PUSH1 0x0 SWAP1 SLOAD SWAP1 PUSH2 0x100 EXP SWAP1 DIV PUSH20 0xFFFFFFFFFFFFFFFFFFFFFFFFFFFFFFFFFFFFFFFF AND PUSH20 0xFFFFFFFFFFFFFFFFFFFFFFFFFFFFFFFFFFFFFFFF AND DUP8 PUSH20 0xFFFFFFFFFFFFFFFFFFFFFFFFFFFFFFFFFFFFFFFF AND SUB PUSH2 0x1507 JUMPI PUSH1 0x64 DUP3 PUSH2 0x122F SWAP2 SWAP1 PUSH2 0x1D29 JUMP JUMPDEST DUP2 PUSH1 0x0 SLOAD PUSH2 0x123D SWAP2 SWAP1 PUSH2 0x1D5A JUMP JUMPDEST PUSH2 0x1247 SWAP2 SWAP1 PUSH2 0x1D5A JUMP JUMPDEST PUSH1 0x0 DUP2 SWAP1 SSTORE POP PUSH1 0x0 SLOAD PUSH1 0x5 SLOAD PUSH2 0x125D SWAP2 SWAP1 PUSH2 0x1D29 JUMP JUMPDEST PUSH1 0x1 SLOAD PUSH2 0x126A SWAP2 SWAP1 PUSH2 0x1D8E JUMP JUMPDEST PUSH1 0x6 DUP2 SWAP1 SSTORE POP DUP5 DUP5 PUSH20 0xFFFFFFFFFFFFFFFFFFFFFFFFFFFFFFFFFFFFFFFF AND PUSH4 0x70A08231 CALLER PUSH1 0x40 MLOAD DUP3 PUSH4 0xFFFFFFFF AND PUSH1 0xE0 SHL DUP2 MSTORE PUSH1 0x4 ADD PUSH2 0x12AA SWAP2 SWAP1 PUSH2 0x1B0B JUMP JUMPDEST PUSH1 0x20 PUSH1 0x40 MLOAD DUP1 DUP4 SUB DUP2 DUP7 GAS STATICCALL ISZERO DUP1 ISZERO PUSH2 0x12C7 JUMPI RETURNDATASIZE PUSH1 0x0 DUP1 RETURNDATACOPY RETURNDATASIZE PUSH1 0x0 REVERT JUMPDEST POP POP POP POP PUSH1 0x40 MLOAD RETURNDATASIZE PUSH1 0x1F NOT PUSH1 0x1F DUP3 ADD AND DUP3 ADD DUP1 PUSH1 0x40 MSTORE POP DUP2 ADD SWAP1 PUSH2 0x12EB SWAP2 SWAP1 PUSH2 0x1DD7 JUMP JUMPDEST LT ISZERO PUSH2 0x132C JUMPI PUSH1 0x40 MLOAD PUSH32 0x8C379A000000000000000000000000000000000000000000000000000000000 DUP2 MSTORE PUSH1 0x4 ADD PUSH2 0x1323 SWAP1 PUSH2 0x1E50 JUMP JUMPDEST PUSH1 0x40 MLOAD DUP1 SWAP2 SUB SWAP1 REVERT JUMPDEST DUP4 PUSH20 0xFFFFFFFFFFFFFFFFFFFFFFFFFFFFFFFFFFFFFFFF AND PUSH4 0x23B872DD CALLER ADDRESS DUP5 PUSH1 0x40 MLOAD DUP5 PUSH4 0xFFFFFFFF AND PUSH1 0xE0 SHL DUP2 MSTORE PUSH1 0x4 ADD PUSH2 0x1369 SWAP4 SWAP3 SWAP2 SWAP1 PUSH2 0x1E70 JUMP JUMPDEST PUSH1 0x20 PUSH1 0x40 MLOAD DUP1 DUP4 SUB DUP2 PUSH1 0x0 DUP8 GAS CALL ISZERO DUP1 ISZERO PUSH2 0x1388 JUMPI RETURNDATASIZE PUSH1 0x0 DUP1 RETURNDATACOPY RETURNDATASIZE PUSH1 0x0 REVERT JUMPDEST POP POP POP POP PUSH1 0x40 MLOAD RETURNDATASIZE PUSH1 0x1F NOT PUSH1 0x1F DUP3 ADD AND DUP3 ADD DUP1 PUSH1 0x40 MSTORE POP DUP2 ADD SWAP1 PUSH2 0x13AC SWAP2 SWAP1 PUSH2 0x1EDF JUMP JUMPDEST POP PUSH1 0x6 SLOAD DUP4 PUSH20 0xFFFFFFFFFFFFFFFFFFFFFFFFFFFFFFFFFFFFFFFF AND PUSH4 0x70A08231 ADDRESS PUSH1 0x40 MLOAD DUP3 PUSH4 0xFFFFFFFF AND PUSH1 0xE0 SHL DUP2 MSTORE PUSH1 0x4 ADD PUSH2 0x13E9 SWAP2 SWAP1 PUSH2 0x1B0B JUMP JUMPDEST PUSH1 0x20 PUSH1 0x40 MLOAD DUP1 DUP4 SUB DUP2 DUP7 GAS STATICCALL ISZERO DUP1 ISZERO PUSH2 0x1406 JUMPI RETURNDATASIZE PUSH1 0x0 DUP1 RETURNDATACOPY RETURNDATASIZE PUSH1 0x0 REVERT JUMPDEST POP POP POP POP PUSH1 0x40 MLOAD RETURNDATASIZE PUSH1 0x1F NOT PUSH1 0x1F DUP3 ADD AND DUP3 ADD DUP1 PUSH1 0x40 MSTORE POP DUP2 ADD SWAP1 PUSH2 0x142A SWAP2 SWAP1 PUSH2 0x1DD7 JUMP JUMPDEST LT ISZERO PUSH2 0x146B JUMPI PUSH1 0x40 MLOAD PUSH32 0x8C379A000000000000000000000000000000000000000000000000000000000 DUP2 MSTORE PUSH1 0x4 ADD PUSH2 0x1462 SWAP1 PUSH2 0x20F4 JUMP JUMPDEST PUSH1 0x40 MLOAD DUP1 SWAP2 SUB SWAP1 REVERT JUMPDEST DUP3 PUSH20 0xFFFFFFFFFFFFFFFFFFFFFFFFFFFFFFFFFFFFFFFF AND PUSH4 0xA9059CBB CALLER PUSH1 0x6 SLOAD PUSH1 0x40 MLOAD DUP4 PUSH4 0xFFFFFFFF AND PUSH1 0xE0 SHL DUP2 MSTORE PUSH1 0x4 ADD PUSH2 0x14A8 SWAP3 SWAP2 SWAP1 PUSH2 0x1F0C JUMP JUMPDEST PUSH1 0x20 PUSH1 0x40 MLOAD DUP1 DUP4 SUB DUP2 PUSH1 0x0 DUP8 GAS CALL ISZERO DUP1 ISZERO PUSH2 0x14C7 JUMPI RETURNDATASIZE PUSH1 0x0 DUP1 RETURNDATACOPY RETURNDATASIZE PUSH1 0x0 REVERT JUMPDEST POP POP POP POP PUSH1 0x40 MLOAD RETURNDATASIZE PUSH1 0x1F NOT PUSH1 0x1F DUP3 ADD AND DUP3 ADD DUP1 PUSH1 0x40 MSTORE POP DUP2 ADD SWAP1 PUSH2 0x14EB SWAP2 SWAP1 PUSH2 0x1EDF JUMP JUMPDEST POP PUSH1 0x6 SLOAD PUSH1 0x1 SLOAD PUSH2 0x14FC SWAP2 SWAP1 PUSH2 0x1D8E JUMP JUMPDEST PUSH1 0x1 DUP2 SWAP1 SSTORE POP PUSH2 0x183E JUMP JUMPDEST PUSH1 0x8 PUSH1 0x0 SWAP1 SLOAD SWAP1 PUSH2 0x100 EXP SWAP1 DIV PUSH20 0xFFFFFFFFFFFFFFFFFFFFFFFFFFFFFFFFFFFFFFFF AND PUSH20 0xFFFFFFFFFFFFFFFFFFFFFFFFFFFFFFFFFFFFFFFF AND DUP8 PUSH20 0xFFFFFFFFFFFFFFFFFFFFFFFFFFFFFFFFFFFFFFFF AND SUB PUSH2 0x183D JUMPI PUSH1 0x64 DUP3 PUSH2 0x1569 SWAP2 SWAP1 PUSH2 0x1D29 JUMP JUMPDEST DUP2 PUSH1 0x1 SLOAD PUSH2 0x1577 SWAP2 SWAP1 PUSH2 0x1D5A JUMP JUMPDEST PUSH2 0x1581 SWAP2 SWAP1 PUSH2 0x1D5A JUMP JUMPDEST PUSH1 0x1 DUP2 SWAP1 SSTORE POP PUSH1 0x1 SLOAD PUSH1 0x5 SLOAD PUSH2 0x1597 SWAP2 SWAP1 PUSH2 0x1D29 JUMP JUMPDEST PUSH1 0x0 SLOAD PUSH2 0x15A4 SWAP2 SWAP1 PUSH2 0x1D8E JUMP JUMPDEST PUSH1 0x6 DUP2 SWAP1 SSTORE POP DUP5 DUP5 PUSH20 0xFFFFFFFFFFFFFFFFFFFFFFFFFFFFFFFFFFFFFFFF AND PUSH4 0x70A08231 CALLER PUSH1 0x40 MLOAD DUP3 PUSH4 0xFFFFFFFF AND PUSH1 0xE0 SHL DUP2 MSTORE PUSH1 0x4 ADD PUSH2 0x15E4 SWAP2 SWAP1 PUSH2 0x1B0B JUMP JUMPDEST PUSH1 0x20 PUSH1 0x40 MLOAD DUP1 DUP4 SUB DUP2 DUP7 GAS STATICCALL ISZERO DUP1 ISZERO PUSH2 0x1601 JUMPI RETURNDATASIZE PUSH1 0x0 DUP1 RETURNDATACOPY RETURNDATASIZE PUSH1 0x0 REVERT JUMPDEST POP POP POP POP PUSH1 0x40 MLOAD RETURNDATASIZE PUSH1 0x1F NOT PUSH1 0x1F DUP3 ADD AND DUP3 ADD DUP1 PUSH1 0x40 MSTORE POP DUP2 ADD SWAP1 PUSH2 0x1625 SWAP2 SWAP1 PUSH2 0x1DD7 JUMP JUMPDEST LT ISZERO PUSH2 0x1666 JUMPI PUSH1 0x40 MLOAD PUSH32 0x8C379A000000000000000000000000000000000000000000000000000000000 DUP2 MSTORE PUSH1 0x4 ADD PUSH2 0x165D SWAP1 PUSH2 0x1E50 JUMP JUMPDEST PUSH1 0x40 MLOAD DUP1 SWAP2 SUB SWAP1 REVERT JUMPDEST DUP4 PUSH20 0xFFFFFFFFFFFFFFFFFFFFFFFFFFFFFFFFFFFFFFFF AND PUSH4 0x23B872DD CALLER ADDRESS DUP5 PUSH1 0x40 MLOAD DUP5 PUSH4 0xFFFFFFFF AND PUSH1 0xE0 SHL DUP2 MSTORE PUSH1 0x4 ADD PUSH2 0x16A3 SWAP4 SWAP3 SWAP2 SWAP1 PUSH2 0x1E70 JUMP JUMPDEST PUSH1 0x20 PUSH1 0x40 MLOAD DUP1 DUP4 SUB DUP2 PUSH1 0x0 DUP8 GAS CALL ISZERO DUP1 ISZERO PUSH2 0x16C2 JUMPI RETURNDATASIZE PUSH1 0x0 DUP1 RETURNDATACOPY RETURNDATASIZE PUSH1 0x0 REVERT JUMPDEST POP POP POP POP PUSH1 0x40 MLOAD RETURNDATASIZE PUSH1 0x1F NOT PUSH1 0x1F DUP3 ADD AND DUP3 ADD DUP1 PUSH1 0x40 MSTORE POP DUP2 ADD SWAP1 PUSH2 0x16E6 SWAP2 SWAP1 PUSH2 0x1EDF JUMP JUMPDEST POP PUSH1 0x6 SLOAD DUP4 PUSH20 0xFFFFFFFFFFFFFFFFFFFFFFFFFFFFFFFFFFFFFFFF AND PUSH4 0x70A08231 ADDRESS PUSH1 0x40 MLOAD DUP3 PUSH4 0xFFFFFFFF AND PUSH1 0xE0 SHL DUP2 MSTORE PUSH1 0x4 ADD PUSH2 0x1723 SWAP2 SWAP1 PUSH2 0x1B0B JUMP JUMPDEST PUSH1 0x20 PUSH1 0x40 MLOAD DUP1 DUP4 SUB DUP2 DUP7 GAS STATICCALL ISZERO DUP1 ISZERO PUSH2 0x1740 JUMPI RETURNDATASIZE PUSH1 0x0 DUP1 RETURNDATACOPY RETURNDATASIZE PUSH1 0x0 REVERT JUMPDEST POP POP POP POP PUSH1 0x40 MLOAD RETURNDATASIZE PUSH1 0x1F NOT PUSH1 0x1F DUP3 ADD AND DUP3 ADD DUP1 PUSH1 0x40 MSTORE POP DUP2 ADD SWAP1 PUSH2 0x1764 SWAP2 SWAP1 PUSH2 0x1DD7 JUMP JUMPDEST LT ISZERO PUSH2 0x17A5 JUMPI PUSH1 0x40 MLOAD PUSH32 0x8C379A000000000000000000000000000000000000000000000000000000000 DUP2 MSTORE PUSH1 0x4 ADD PUSH2 0x179C SWAP1 PUSH2 0x20F4 JUMP JUMPDEST PUSH1 0x40 MLOAD DUP1 SWAP2 SUB SWAP1 REVERT JUMPDEST DUP3 PUSH20 0xFFFFFFFFFFFFFFFFFFFFFFFFFFFFFFFFFFFFFFFF AND PUSH4 0xA9059CBB CALLER PUSH1 0x6 SLOAD PUSH1 0x40 MLOAD DUP4 PUSH4 0xFFFFFFFF AND PUSH1 0xE0 SHL DUP2 MSTORE PUSH1 0x4 ADD PUSH2 0x17E2 SWAP3 SWAP2 SWAP1 PUSH2 0x1F0C JUMP JUMPDEST PUSH1 0x20 PUSH1 0x40 MLOAD DUP1 DUP4 SUB DUP2 PUSH1 0x0 DUP8 GAS CALL ISZERO DUP1 ISZERO PUSH2 0x1801 JUMPI RETURNDATASIZE PUSH1 0x0 DUP1 RETURNDATACOPY RETURNDATASIZE PUSH1 0x0 REVERT JUMPDEST POP POP POP POP PUSH1 0x40 MLOAD RETURNDATASIZE PUSH1 0x1F NOT PUSH1 0x1F DUP3 ADD AND DUP3 ADD DUP1 PUSH1 0x40 MSTORE POP DUP2 ADD SWAP1 PUSH2 0x1825 SWAP2 SWAP1 PUSH2 0x1EDF JUMP JUMPDEST POP PUSH1 0x6 SLOAD PUSH1 0x0 SLOAD PUSH2 0x1836 SWAP2 SWAP1 PUSH2 0x1D8E JUMP JUMPDEST PUSH1 0x0 DUP2 SWAP1 SSTORE POP JUMPDEST JUMPDEST POP POP POP POP POP POP POP JUMP JUMPDEST PUSH1 0x0 DUP1 DUP3 SUB PUSH2 0x1859 JUMPI PUSH1 0x0 SWAP1 POP PUSH2 0x19F4 JUMP JUMPDEST PUSH1 0x0 DUP3 SWAP1 POP PUSH1 0x1 SWAP2 POP PUSH17 0x100000000000000000000000000000000 DUP2 LT PUSH2 0x1889 JUMPI PUSH1 0x80 DUP2 SWAP1 SHR SWAP1 POP PUSH1 0x40 DUP3 SWAP1 SHL SWAP2 POP JUMPDEST PUSH9 0x10000000000000000 DUP2 LT PUSH2 0x18A8 JUMPI PUSH1 0x40 DUP2 SWAP1 SHR SWAP1 POP PUSH1 0x20 DUP3 SWAP1 SHL SWAP2 POP JUMPDEST PUSH5 0x100000000 DUP2 LT PUSH2 0x18C3 JUMPI PUSH1 0x20 DUP2 SWAP1 SHR SWAP1 POP PUSH1 0x10 DUP3 SWAP1 SHL SWAP2 POP JUMPDEST PUSH3 0x10000 DUP2 LT PUSH2 0x18DC JUMPI PUSH1 0x10 DUP2 SWAP1 SHR SWAP1 POP PUSH1 0x8 DUP3 SWAP1 SHL SWAP2 POP JUMPDEST PUSH2 0x100 DUP2 LT PUSH2 0x18F4 JUMPI PUSH1 0x8 DUP2 SWAP1 SHR SWAP1 POP PUSH1 0x4 DUP3 SWAP1 SHL SWAP2 POP JUMPDEST PUSH1 0x10 DUP2 LT PUSH2 0x190B JUMPI PUSH1 0x4 DUP2 SWAP1 SHR SWAP1 POP PUSH1 0x2 DUP3 SWAP1 SHL SWAP2 POP JUMPDEST PUSH1 0x8 DUP2 LT PUSH2 0x191B JUMPI PUSH1 0x1 DUP3 SWAP1 SHL SWAP2 POP JUMPDEST PUSH1 0x1 DUP3 DUP5 DUP2 PUSH2 0x192D JUMPI PUSH2 0x192C PUSH2 0x1CFA JUMP JUMPDEST JUMPDEST DIV DUP4 ADD SWAP1 SHR SWAP2 POP PUSH1 0x1 DUP3 DUP5 DUP2 PUSH2 0x1946 JUMPI PUSH2 0x1945 PUSH2 0x1CFA JUMP JUMPDEST JUMPDEST DIV DUP4 ADD SWAP1 SHR SWAP2 POP PUSH1 0x1 DUP3 DUP5 DUP2 PUSH2 0x195F JUMPI PUSH2 0x195E PUSH2 0x1CFA JUMP JUMPDEST JUMPDEST DIV DUP4 ADD SWAP1 SHR SWAP2 POP PUSH1 0x1 DUP3 DUP5 DUP2 PUSH2 0x1978 JUMPI PUSH2 0x1977 PUSH2 0x1CFA JUMP JUMPDEST JUMPDEST DIV DUP4 ADD SWAP1 SHR SWAP2 POP PUSH1 0x1 DUP3 DUP5 DUP2 PUSH2 0x1991 JUMPI PUSH2 0x1990 PUSH2 0x1CFA JUMP JUMPDEST JUMPDEST DIV DUP4 ADD SWAP1 SHR SWAP2 POP PUSH1 0x1 DUP3 DUP5 DUP2 PUSH2 0x19AA JUMPI PUSH2 0x19A9 PUSH2 0x1CFA JUMP JUMPDEST JUMPDEST DIV DUP4 ADD SWAP1 SHR SWAP2 POP PUSH1 0x1 DUP3 DUP5 DUP2 PUSH2 0x19C3 JUMPI PUSH2 0x19C2 PUSH2 0x1CFA JUMP JUMPDEST JUMPDEST DIV DUP4 ADD SWAP1 SHR SWAP2 POP PUSH1 0x0 DUP3 DUP5 DUP2 PUSH2 0x19DC JUMPI PUSH2 0x19DB PUSH2 0x1CFA JUMP JUMPDEST JUMPDEST DIV SWAP1 POP DUP1 DUP4 LT ISZERO PUSH2 0x19ED JUMPI DUP3 PUSH2 0x19EF JUMP JUMPDEST DUP1 JUMPDEST SWAP3 POP POP POP JUMPDEST SWAP2 SWAP1 POP JUMP JUMPDEST PUSH1 0x0 DUP1 REVERT JUMPDEST PUSH1 0x0 PUSH20 0xFFFFFFFFFFFFFFFFFFFFFFFFFFFFFFFFFFFFFFFF DUP3 AND SWAP1 POP SWAP2 SWAP1 POP JUMP JUMPDEST PUSH1 0x0 PUSH2 0x1A29 DUP3 PUSH2 0x19FE JUMP JUMPDEST SWAP1 POP SWAP2 SWAP1 POP JUMP JUMPDEST PUSH2 0x1A39 DUP2 PUSH2 0x1A1E JUMP JUMPDEST DUP2 EQ PUSH2 0x1A44 JUMPI PUSH1 0x0 DUP1 REVERT JUMPDEST POP JUMP JUMPDEST PUSH1 0x0 DUP2 CALLDATALOAD SWAP1 POP PUSH2 0x1A56 DUP2 PUSH2 0x1A30 JUMP JUMPDEST SWAP3 SWAP2 POP POP JUMP JUMPDEST PUSH1 0x0 DUP2 SWAP1 POP SWAP2 SWAP1 POP JUMP JUMPDEST PUSH2 0x1A6F DUP2 PUSH2 0x1A5C JUMP JUMPDEST DUP2 EQ PUSH2 0x1A7A JUMPI PUSH1 0x0 DUP1 REVERT JUMPDEST POP JUMP JUMPDEST PUSH1 0x0 DUP2 CALLDATALOAD SWAP1 POP PUSH2 0x1A8C DUP2 PUSH2 0x1A66 JUMP JUMPDEST SWAP3 SWAP2 POP POP JUMP JUMPDEST PUSH1 0x0 DUP1 PUSH1 0x40 DUP4 DUP6 SUB SLT ISZERO PUSH2 0x1AA9 JUMPI PUSH2 0x1AA8 PUSH2 0x19F9 JUMP JUMPDEST JUMPDEST PUSH1 0x0 PUSH2 0x1AB7 DUP6 DUP3 DUP7 ADD PUSH2 0x1A47 JUMP JUMPDEST SWAP3 POP POP PUSH1 0x20 PUSH2 0x1AC8 DUP6 DUP3 DUP7 ADD PUSH2 0x1A7D JUMP JUMPDEST SWAP2 POP POP SWAP3 POP SWAP3 SWAP1 POP JUMP JUMPDEST PUSH2 0x1ADB DUP2 PUSH2 0x1A5C JUMP JUMPDEST DUP3 MSTORE POP POP JUMP JUMPDEST PUSH1 0x0 PUSH1 0x20 DUP3 ADD SWAP1 POP PUSH2 0x1AF6 PUSH1 0x0 DUP4 ADD DUP5 PUSH2 0x1AD2 JUMP JUMPDEST SWAP3 SWAP2 POP POP JUMP JUMPDEST PUSH2 0x1B05 DUP2 PUSH2 0x1A1E JUMP JUMPDEST DUP3 MSTORE POP POP JUMP JUMPDEST PUSH1 0x0 PUSH1 0x20 DUP3 ADD SWAP1 POP PUSH2 0x1B20 PUSH1 0x0 DUP4 ADD DUP5 PUSH2 0x1AFC JUMP JUMPDEST SWAP3 SWAP2 POP POP JUMP JUMPDEST PUSH1 0x0 PUSH1 0x20 DUP3 DUP5 SUB SLT ISZERO PUSH2 0x1B3C JUMPI PUSH2 0x1B3B PUSH2 0x19F9 JUMP JUMPDEST JUMPDEST PUSH1 0x0 PUSH2 0x1B4A DUP5 DUP3 DUP6 ADD PUSH2 0x1A7D JUMP JUMPDEST SWAP2 POP POP SWAP3 SWAP2 POP POP JUMP JUMPDEST PUSH1 0x0 DUP1 PUSH1 0x40 DUP4 DUP6 SUB SLT ISZERO PUSH2 0x1B6A JUMPI PUSH2 0x1B69 PUSH2 0x19F9 JUMP JUMPDEST JUMPDEST PUSH1 0x0 PUSH2 0x1B78 DUP6 DUP3 DUP7 ADD PUSH2 0x1A7D JUMP JUMPDEST SWAP3 POP POP PUSH1 0x20 PUSH2 0x1B89 DUP6 DUP3 DUP7 ADD PUSH2 0x1A7D JUMP JUMPDEST SWAP2 POP POP SWAP3 POP SWAP3 SWAP1 POP JUMP JUMPDEST PUSH1 0x0 DUP1 PUSH1 0x0 PUSH1 0x60 DUP5 DUP7 SUB SLT ISZERO PUSH2 0x1BAC JUMPI PUSH2 0x1BAB PUSH2 0x19F9 JUMP JUMPDEST JUMPDEST PUSH1 0x0 PUSH2 0x1BBA DUP7 DUP3 DUP8 ADD PUSH2 0x1A47 JUMP JUMPDEST SWAP4 POP POP PUSH1 0x20 PUSH2 0x1BCB DUP7 DUP3 DUP8 ADD PUSH2 0x1A47 JUMP JUMPDEST SWAP3 POP POP PUSH1 0x40 PUSH2 0x1BDC DUP7 DUP3 DUP8 ADD PUSH2 0x1A7D JUMP JUMPDEST SWAP2 POP POP SWAP3 POP SWAP3 POP SWAP3 JUMP JUMPDEST PUSH1 0x0 DUP3 DUP3 MSTORE PUSH1 0x20 DUP3 ADD SWAP1 POP SWAP3 SWAP2 POP POP JUMP JUMPDEST PUSH32 0x546F6B656E20746F2062652073776170706564206973206E6569746865722061 PUSH1 0x0 DUP3 ADD MSTORE PUSH32 0x626320636F696E206E6569746865722064656620636F696E0000000000000000 PUSH1 0x20 DUP3 ADD MSTORE POP JUMP JUMPDEST PUSH1 0x0 PUSH2 0x1C53 PUSH1 0x38 DUP4 PUSH2 0x1BE6 JUMP JUMPDEST SWAP2 POP PUSH2 0x1C5E DUP3 PUSH2 0x1BF7 JUMP JUMPDEST PUSH1 0x40 DUP3 ADD SWAP1 POP SWAP2 SWAP1 POP JUMP JUMPDEST PUSH1 0x0 PUSH1 0x20 DUP3 ADD SWAP1 POP DUP2 DUP2 SUB PUSH1 0x0 DUP4 ADD MSTORE PUSH2 0x1C82 DUP2 PUSH2 0x1C46 JUMP JUMPDEST SWAP1 POP SWAP2 SWAP1 POP JUMP JUMPDEST PUSH32 0x4E487B7100000000000000000000000000000000000000000000000000000000 PUSH1 0x0 MSTORE PUSH1 0x11 PUSH1 0x4 MSTORE PUSH1 0x24 PUSH1 0x0 REVERT JUMPDEST PUSH1 0x0 PUSH2 0x1CC3 DUP3 PUSH2 0x1A5C JUMP JUMPDEST SWAP2 POP PUSH2 0x1CCE DUP4 PUSH2 0x1A5C JUMP JUMPDEST SWAP3 POP DUP3 DUP3 MUL PUSH2 0x1CDC DUP2 PUSH2 0x1A5C JUMP JUMPDEST SWAP2 POP DUP3 DUP3 DIV DUP5 EQ DUP4 ISZERO OR PUSH2 0x1CF3 JUMPI PUSH2 0x1CF2 PUSH2 0x1C89 JUMP JUMPDEST JUMPDEST POP SWAP3 SWAP2 POP POP JUMP JUMPDEST PUSH32 0x4E487B7100000000000000000000000000000000000000000000000000000000 PUSH1 0x0 MSTORE PUSH1 0x12 PUSH1 0x4 MSTORE PUSH1 0x24 PUSH1 0x0 REVERT JUMPDEST PUSH1 0x0 PUSH2 0x1D34 DUP3 PUSH2 0x1A5C JUMP JUMPDEST SWAP2 POP PUSH2 0x1D3F DUP4 PUSH2 0x1A5C JUMP JUMPDEST SWAP3 POP DUP3 PUSH2 0x1D4F JUMPI PUSH2 0x1D4E PUSH2 0x1CFA JUMP JUMPDEST JUMPDEST DUP3 DUP3 DIV SWAP1 POP SWAP3 SWAP2 POP POP JUMP JUMPDEST PUSH1 0x0 PUSH2 0x1D65 DUP3 PUSH2 0x1A5C JUMP JUMPDEST SWAP2 POP PUSH2 0x1D70 DUP4 PUSH2 0x1A5C JUMP JUMPDEST SWAP3 POP DUP3 DUP3 ADD SWAP1 POP DUP1 DUP3 GT ISZERO PUSH2 0x1D88 JUMPI PUSH2 0x1D87 PUSH2 0x1C89 JUMP JUMPDEST JUMPDEST SWAP3 SWAP2 POP POP JUMP JUMPDEST PUSH1 0x0 PUSH2 0x1D99 DUP3 PUSH2 0x1A5C JUMP JUMPDEST SWAP2 POP PUSH2 0x1DA4 DUP4 PUSH2 0x1A5C JUMP JUMPDEST SWAP3 POP DUP3 DUP3 SUB SWAP1 POP DUP2 DUP2 GT ISZERO PUSH2 0x1DBC JUMPI PUSH2 0x1DBB PUSH2 0x1C89 JUMP JUMPDEST JUMPDEST SWAP3 SWAP2 POP POP JUMP JUMPDEST PUSH1 0x0 DUP2 MLOAD SWAP1 POP PUSH2 0x1DD1 DUP2 PUSH2 0x1A66 JUMP JUMPDEST SWAP3 SWAP2 POP POP JUMP JUMPDEST PUSH1 0x0 PUSH1 0x20 DUP3 DUP5 SUB SLT ISZERO PUSH2 0x1DED JUMPI PUSH2 0x1DEC PUSH2 0x19F9 JUMP JUMPDEST JUMPDEST PUSH1 0x0 PUSH2 0x1DFB DUP5 DUP3 DUP6 ADD PUSH2 0x1DC2 JUMP JUMPDEST SWAP2 POP POP SWAP3 SWAP2 POP POP JUMP JUMPDEST PUSH32 0x596F75206861766520696E73756666696369656E742066756E64730000000000 PUSH1 0x0 DUP3 ADD MSTORE POP JUMP JUMPDEST PUSH1 0x0 PUSH2 0x1E3A PUSH1 0x1B DUP4 PUSH2 0x1BE6 JUMP JUMPDEST SWAP2 POP PUSH2 0x1E45 DUP3 PUSH2 0x1E04 JUMP JUMPDEST PUSH1 0x20 DUP3 ADD SWAP1 POP SWAP2 SWAP1 POP JUMP JUMPDEST PUSH1 0x0 PUSH1 0x20 DUP3 ADD SWAP1 POP DUP2 DUP2 SUB PUSH1 0x0 DUP4 ADD MSTORE PUSH2 0x1E69 DUP2 PUSH2 0x1E2D JUMP JUMPDEST SWAP1 POP SWAP2 SWAP1 POP JUMP JUMPDEST PUSH1 0x0 PUSH1 0x60 DUP3 ADD SWAP1 POP PUSH2 0x1E85 PUSH1 0x0 DUP4 ADD DUP7 PUSH2 0x1AFC JUMP JUMPDEST PUSH2 0x1E92 PUSH1 0x20 DUP4 ADD DUP6 PUSH2 0x1AFC JUMP JUMPDEST PUSH2 0x1E9F PUSH1 0x40 DUP4 ADD DUP5 PUSH2 0x1AD2 JUMP JUMPDEST SWAP5 SWAP4 POP POP POP POP JUMP JUMPDEST PUSH1 0x0 DUP2 ISZERO ISZERO SWAP1 POP SWAP2 SWAP1 POP JUMP JUMPDEST PUSH2 0x1EBC DUP2 PUSH2 0x1EA7 JUMP JUMPDEST DUP2 EQ PUSH2 0x1EC7 JUMPI PUSH1 0x0 DUP1 REVERT JUMPDEST POP JUMP JUMPDEST PUSH1 0x0 DUP2 MLOAD SWAP1 POP PUSH2 0x1ED9 DUP2 PUSH2 0x1EB3 JUMP JUMPDEST SWAP3 SWAP2 POP POP JUMP JUMPDEST PUSH1 0x0 PUSH1 0x20 DUP3 DUP5 SUB SLT ISZERO PUSH2 0x1EF5 JUMPI PUSH2 0x1EF4 PUSH2 0x19F9 JUMP JUMPDEST JUMPDEST PUSH1 0x0 PUSH2 0x1F03 DUP5 DUP3 DUP6 ADD PUSH2 0x1ECA JUMP JUMPDEST SWAP2 POP POP SWAP3 SWAP2 POP POP JUMP JUMPDEST PUSH1 0x0 PUSH1 0x40 DUP3 ADD SWAP1 POP PUSH2 0x1F21 PUSH1 0x0 DUP4 ADD DUP6 PUSH2 0x1AFC JUMP JUMPDEST PUSH2 0x1F2E PUSH1 0x20 DUP4 ADD DUP5 PUSH2 0x1AD2 JUMP JUMPDEST SWAP4 SWAP3 POP POP POP JUMP JUMPDEST PUSH1 0x0 PUSH1 0x40 DUP3 ADD SWAP1 POP PUSH2 0x1F4A PUSH1 0x0 DUP4 ADD DUP6 PUSH2 0x1AFC JUMP JUMPDEST PUSH2 0x1F57 PUSH1 0x20 DUP4 ADD DUP5 PUSH2 0x1AFC JUMP JUMPDEST SWAP4 SWAP3 POP POP POP JUMP JUMPDEST PUSH32 0x506C6561736520617070726F7665206265666F726520616464696E67206C6971 PUSH1 0x0 DUP3 ADD MSTORE PUSH32 0x7569646974790000000000000000000000000000000000000000000000000000 PUSH1 0x20 DUP3 ADD MSTORE POP JUMP JUMPDEST PUSH1 0x0 PUSH2 0x1FBA PUSH1 0x26 DUP4 PUSH2 0x1BE6 JUMP JUMPDEST SWAP2 POP PUSH2 0x1FC5 DUP3 PUSH2 0x1F5E JUMP JUMPDEST PUSH1 0x40 DUP3 ADD SWAP1 POP SWAP2 SWAP1 POP JUMP JUMPDEST PUSH1 0x0 PUSH1 0x20 DUP3 ADD SWAP1 POP DUP2 DUP2 SUB PUSH1 0x0 DUP4 ADD MSTORE PUSH2 0x1FE9 DUP2 PUSH2 0x1FAD JUMP JUMPDEST SWAP1 POP SWAP2 SWAP1 POP JUMP JUMPDEST PUSH32 0x746F6B656E2041206973206E6569746865722061626320636F696E206E6F7220 PUSH1 0x0 DUP3 ADD MSTORE PUSH32 0x64656620636F696E000000000000000000000000000000000000000000000000 PUSH1 0x20 DUP3 ADD MSTORE POP JUMP JUMPDEST PUSH1 0x0 PUSH2 0x204C PUSH1 0x28 DUP4 PUSH2 0x1BE6 JUMP JUMPDEST SWAP2 POP PUSH2 0x2057 DUP3 PUSH2 0x1FF0 JUMP JUMPDEST PUSH1 0x40 DUP3 ADD SWAP1 POP SWAP2 SWAP1 POP JUMP JUMPDEST PUSH1 0x0 PUSH1 0x20 DUP3 ADD SWAP1 POP DUP2 DUP2 SUB PUSH1 0x0 DUP4 ADD MSTORE PUSH2 0x207B DUP2 PUSH2 0x203F JUMP JUMPDEST SWAP1 POP SWAP2 SWAP1 POP JUMP JUMPDEST PUSH32 0x414D4D20636F6E747261637420646F6573206E6F742068617665207375666669 PUSH1 0x0 DUP3 ADD MSTORE PUSH32 0x6369656E74206C69717569646974790000000000000000000000000000000000 PUSH1 0x20 DUP3 ADD MSTORE POP JUMP JUMPDEST PUSH1 0x0 PUSH2 0x20DE PUSH1 0x2F DUP4 PUSH2 0x1BE6 JUMP JUMPDEST SWAP2 POP PUSH2 0x20E9 DUP3 PUSH2 0x2082 JUMP JUMPDEST PUSH1 0x40 DUP3 ADD SWAP1 POP SWAP2 SWAP1 POP JUMP JUMPDEST PUSH1 0x0 PUSH1 0x20 DUP3 ADD SWAP1 POP DUP2 DUP2 SUB PUSH1 0x0 DUP4 ADD MSTORE PUSH2 0x210D DUP2 PUSH2 0x20D1 JUMP JUMPDEST SWAP1 POP SWAP2 SWAP1 POP JUMP INVALID LOG2 PUSH5 0x6970667358 0x22 SLT KECCAK256 OR PUSH32 0x3AE90157EBB6354B471DFF67BAB55F3FE211D6125C8EF0E959A7148DE7C36473 PUSH16 0x6C634300081200330000000000000000 "
		},
		"gasEstimates": {
			"creation": {
				"codeDepositCost": "1704400",
				"executionCost": "infinite",
				"totalCost": "infinite"
			},
			"external": {
				"abcCoinTotalSupply()": "2452",
				"addLiquidity(uint256,uint256)": "infinite",
				"defCoinTotalSupply()": "2474",
				"dexFeePercent()": "2518",
				"getSwappedAmount(address,uint256)": "infinite",
				"ghiCoinTotalSupply()": "2496",
				"lpProviders(uint256)": "5022",
				"owner()": "2514",
				"removeLiquidity(uint256)": "infinite",
				"swap(address,address,uint256)": "infinite"
			},
			"internal": {
				"indexOf(address[] memory,address)": "infinite",
				"sqrt(uint256)": "866"
			}
		},
		"methodIdentifiers": {
			"abcCoinTotalSupply()": "10ebb553",
			"addLiquidity(uint256,uint256)": "9cd441da",
			"defCoinTotalSupply()": "3f4c37d0",
			"dexFeePercent()": "5e4a9c72",
			"getSwappedAmount(address,uint256)": "0bcf732c",
			"ghiCoinTotalSupply()": "5d0fd6b2",
			"lpProviders(uint256)": "de5c02c2",
			"owner()": "8da5cb5b",
			"removeLiquidity(uint256)": "9c8f9f23",
			"swap(address,address,uint256)": "df791e50"
		}
	},
	"abi": [
		{
			"inputs": [
				{
					"internalType": "address",
					"name": "_abcCoinAddress",
					"type": "address"
				},
				{
					"internalType": "address",
					"name": "_defCoinAddress",
					"type": "address"
				},
				{
					"internalType": "address",
					"name": "_ghiCoinAddress",
					"type": "address"
				}
			],
			"stateMutability": "nonpayable",
			"type": "constructor"
		},
		{
			"inputs": [],
			"name": "abcCoinTotalSupply",
			"outputs": [
				{
					"internalType": "uint256",
					"name": "",
					"type": "uint256"
				}
			],
			"stateMutability": "view",
			"type": "function"
		},
		{
			"inputs": [
				{
					"internalType": "uint256",
					"name": "_abcCoinAmount",
					"type": "uint256"
				},
				{
					"internalType": "uint256",
					"name": "_defCoinAmount",
					"type": "uint256"
				}
			],
			"name": "addLiquidity",
			"outputs": [],
			"stateMutability": "payable",
			"type": "function"
		},
		{
			"inputs": [],
			"name": "defCoinTotalSupply",
			"outputs": [
				{
					"internalType": "uint256",
					"name": "",
					"type": "uint256"
				}
			],
			"stateMutability": "view",
			"type": "function"
		},
		{
			"inputs": [],
			"name": "dexFeePercent",
			"outputs": [
				{
					"internalType": "uint256",
					"name": "",
					"type": "uint256"
				}
			],
			"stateMutability": "view",
			"type": "function"
		},
		{
			"inputs": [
				{
					"internalType": "address",
					"name": "tokenA",
					"type": "address"
				},
				{
					"internalType": "uint256",
					"name": "amountA",
					"type": "uint256"
				}
			],
			"name": "getSwappedAmount",
			"outputs": [
				{
					"internalType": "uint256",
					"name": "amountB",
					"type": "uint256"
				}
			],
			"stateMutability": "view",
			"type": "function"
		},
		{
			"inputs": [],
			"name": "ghiCoinTotalSupply",
			"outputs": [
				{
					"internalType": "uint256",
					"name": "",
					"type": "uint256"
				}
			],
			"stateMutability": "view",
			"type": "function"
		},
		{
			"inputs": [
				{
					"internalType": "uint256",
					"name": "",
					"type": "uint256"
				}
			],
			"name": "lpProviders",
			"outputs": [
				{
					"internalType": "address",
					"name": "",
					"type": "address"
				}
			],
			"stateMutability": "view",
			"type": "function"
		},
		{
			"inputs": [],
			"name": "owner",
			"outputs": [
				{
					"internalType": "address",
					"name": "",
					"type": "address"
				}
			],
			"stateMutability": "view",
			"type": "function"
		},
		{
			"inputs": [
				{
					"internalType": "uint256",
					"name": "_ghiCoinAmount",
					"type": "uint256"
				}
			],
			"name": "removeLiquidity",
			"outputs": [],
			"stateMutability": "payable",
			"type": "function"
		},
		{
			"inputs": [
				{
					"internalType": "address",
					"name": "tokenA",
					"type": "address"
				},
				{
					"internalType": "address",
					"name": "tokenB",
					"type": "address"
				},
				{
					"internalType": "uint256",
					"name": "amount",
					"type": "uint256"
				}
			],
			"name": "swap",
			"outputs": [],
			"stateMutability": "nonpayable",
			"type": "function"
		}
	]
}